:08000000AC1604000000000032
:04001C004A03000093
:04003800240300009D
:04005400BC020000EA
:0400880076020000FC
:08009400FC0200000002000064
:0400E8006A060000A4
:100400004200F8003600F8003200F800801F780043
:10041000200020000C000900B01F78000308AE0087
:1004200007003700E502A900E902A800E422A900BC
:10043000E822A9000308A9000348A8000500370026
:10044000E502A900E902A900E422A900E822A80027
:100450000348A9000328AE0007003700E4E2A90022
:10046000E8E2A900E402A900E802A8000328A90024
:100470000368A80005003700E4E2A900E8E2A8004C
:10048000E402A900E802A9000368A9008780A90086
:100490001821EF008780A900A00120000C000900AE
:1004A0004F1078004F0078003200F9003600F90054
:1004B0004200F900004006000000810000027800C0
:1004C0002440880010008100000278003440880039
:1004D0002000810000027800444088003000810044
:1004E0000002780054408800000006004200F80036
:1004F0003600F8003200F800801F7800200020004D
:100500000C000900B01F78005C020200000000002F
:100510008700A900A00120000C0009004F107800FE
:100520004F0078003200F9003600F9004200F9006F
:10053000004006002202AE00FEFF37002202F80053
:100540000008F900301180002222A90000000600F6
:100550001E21EF008760A9001421EF001E21EF008B
:10056000CC08F8001A01F90004032800F4088800F8
:100570009760A800000006004200F8003600F8006E
:100580003200F800801F7800200020000C000900D5
:10059000B01F7800248C2000034680008482410034
:1005A0009A02020000000000804A7800C028EC0097
:1005B000044680006920E10001003400C028EF00FB
:1005C000030009002682BF008560A900A80202007E
:1005D000000000008560A900A00120000C000900B7
:1005E0004F1078004F0078003200F9003600F90013
:1005F0004200F900004006004200F8003600F80012
:100600003200F800801F7800200020000C00090054
:10061000B01F78001E21EF008760A900AD08A80078
:100620001421EF008760A900A00120000C00090040
:100630004F1078004F0078003200F9003600F900C2
:100640004200F900004006004200F8003600F800C1
:100650003200F800801F7800200020000C00090004
:10066000B01F7800AD28A900DEC2A900E2C2A9002F
:100670008480A900A00120000C0009004F10780020
:100680004F0078003200F9003600F9004200F9000E
:10069000004006004200F8003600F8003200F80082
:1006A000801F7800200020000C000900B01F780097
:1006B00080A0A900A00120000C0009004F107800C4
:1006C0004F0078003200F9003600F9004200F900CE
:1006D000004006000C28EF000E28EF001028EF0065
:1006E0001228EF001428EF001628EF001828EF005A
:1006F0001A28EF00C1812000020020000700090035
:100700008058EB0041822000020020000700090011
:100710008058EB00C1822000020020000700090081
:100720008058EB00418320000200200007000900F0
:100730008058EB004E28EF005028EF005228EF00C1
:1007400003A8A900000006005428EF005628EF0077
:1007500003A8A900000006000EC9BF000000FB00AE
:100760003080B200070032007080B2001100320009
:100770001080B2001B0032003080B2002500320031
:10078000300037000F49E20005003200A40F2000BE
:10079000740C880044962100640C88000400370023
:1007A000A4FD2200740C880004772100640C8800EA
:1007B000240037000F49E20005003200A40F20009A
:1007C000A40C880044962100940C88000400370093
:1007D000A4FD2200A40C880004772100940C88005A
:1007E000180037000F49E20005003200A40F200076
:1007F000D40C880044962100C40C88000400370003
:10080000A4FD2200D40C880004772100C40C8800C9
:100810000C0037000F49E20005003200A40F200051
:10082000040D880044962100F40C88000400370071
:10083000A4FD2200040D880004772100F40C880038
:1008400000003700000006000C49E20019003200E9
:1008500030C0B3000EE9B70010C0B3000FE9B70015
:10086000AC0302000000000040C0B3000EE9B70076
:1008700010C0B3000FE9B700AC0302000000000095
:1008800050C0B3000EE9B70010C0B3000FE9B700C5
:10089000AC0302000000000060C0B3000EE9B70026
:1008A00010C0B3000FE9B700AC0302000000000065
:1008B0001400370030C0B3000EE9B7000F69EF0035
:1008C000AC0302000000000040C0B3000EE9B70016
:1008D0000F69EF00AC0302000000000050C0B3003D
:1008E0000EE9B7000F69EF00AC0302000000000042
:1008F00060C0B3000EE9B7000F69EF00AC0302005F
:100900000000000000000600851F7800861F7800A8
:1009100000FF2F000E09B6008002780000FF2F00B4
:100920001009B6000028E100020032000040EB0090
:100930000100370010C0B3008042780000FF2F0094
:100940001209B6000003780000FF2F001409B6005A
:100950000030E100020032000040EB0001003700EF
:1009600010C0B30080C2620000FF2F000E09B60065
:100970000003780000FF2F001209B6000030E100EC
:10098000020032000040EB000100370010C0B3004D
:1009900000C062000004E0000400320010C0B30098
:1009A00000E0B70003003700020037000060EF00EE
:1009B000000037004F037800CF02780000000600E7
:1009C000851F7800861F7800871F7800881F7800B1
:1009D0000C09A900B44280006220B800C481200044
:1009E000840240002440800084029800B4428000C9
:1009F0006220B8004482200084024000344080001D
:100A000084029800B44280006220B800C4822000B2
:100A1000840240004440800084029800B442800078
:100A20006220B800448320008402400054408000CB
:100A3000840298005628EC00B44280006420E10053
:100A4000010035005628EF001C08F8000E09F900D7
:100A50001E08F8001009F9002008F8001209F90032
:100A60002208F8001409F9008404020000000000C4
:100A70000C29A9000000AF000C29A8002408F800E8
:100A80000E09F9002608F8001009F9002808F800F6
:100A90001209F9002A08F8001409F9008404020078
:100AA000000000000C49A9000000AF000C49A8009C
:100AB0002C08F8000E09F9002E08F8001009F900BA
:100AC0003008F8001209F9003208F8001409F9009A
:100AD00084040200000000000C69A9000000AF00BF
:100AE0000C69A8003408F8000E09F9003608F8006F
:100AF0001009F9003808F8001209F9003A08F8005E
:100B00001409F90084040200000000000C89A90007
:100B10000000AF000C89A8000000EB000C29AF001A
:100B20000000E800004378000000EB000C49AF0033
:100B30000000E800804263000000EB000C69AF0099
:100B40000000E800004478000000EB000C89AF00D2
:100B50000000E8000040640000C062000004E00003
:100B6000010032000C09A8000000EB000C09AF00E6
:100B70000000E8004F047800CF0378004F037800AE
:100B8000CF027800000006000408F8003C08F900D5
:100B90000608F8004008F9000808F8004408F900C1
:100BA0000A08F8004808F900000006000408F800E8
:100BB0003E08F9000608F8004208F9000808F800A5
:100BC0004608F9000A08F8004A08F9000000060083
:100BD0003E88BF00E44180000020E10005003500B0
:100BE0003C08F8001408F9003E08F8000C08F90069
:100BF000040037003E08F8001408F9003C08F8002B
:100C00000C08F9004288BF00044280000020E10087
:100C1000050035004008F8001608F9004208F80001
:100C20000E08F900040037004208F8001608F90021
:100C30004008F8000E08F9004688BF0024428000F2
:100C40000020E100050035004408F8001808F9000C
:100C50004608F8001008F900040037004608F800BC
:100C60001808F9004408F8001008F9004A88BF0085
:100C7000444280000020E100050035004808F800EB
:100C80001A08F9004A08F8001208F90004003700B1
:100C90004A08F8001A08F9004808F8001208F90094
:100CA000000006009A00A9002621EF0000000600BF
:100CB00003A8A8000000060003C8A8000000060062
:100CC0004E08F8005008F9005208F8004E08F900E4
:100CD000000006004200F8003600F8003200F8007C
:100CE000801F7800200020000C000900B01F780051
:100CF0005428EC00A4428000033220000418E100D4
:100D000004003C0000C1B3004CE8B7000420200000
:100D1000944288004E88BF000080B2001500320067
:100D20001080B200180032003080B2001B00320088
:100D30006080B20020003200C080B2002800320083
:100D40008081B2002B0032000083B2002E003200FE
:100D50000086B20032003200008CB2003A0032004D
:100D60000098B2003D00320000B0B20040003200F6
:100D7000440037006A030200000000001400200055
:100D80009442880044003700A403020000000000E1
:100D900024002000944288003F00370010C0B300B8
:100DA0000CE9B70024040200000000004400200009
:100DB0009442880038003700E00402000000000080
:100DC0000004E00003003200840020009442880008
:100DD0000200370044002000944288002E003700B3
:100DE000C4050200000000000401200094428800B5
:100DF00029003700A40302000000000004022000C4
:100E000094428800240037000C69EF00240402009B
:100E10000000000004042000944288001E003700F7
:100E2000E0040200000000000004E00003003200C3
:100E300004082000944288000200370004042000C7
:100E40009442880014003700D6050200000000001C
:100E500004102000944288000F003700E8050200CB
:100E60000000000004202000944288000A0037009F
:100E700052060200000000005806020000000000B8
:100E8000050037005206020000000000580602006C
:100E900000000000000037005C06020000000000B7
:100EA00060060200000000008A00A900A0012000E6
:100EB0000C0009004F1078004F0078003200F90054
:100EC0003600F9004200F900004006004407A9007E
:100ED0004427A8004447A9004467A9004487A90003
:100EE00044C7A90044E7A9004607A9004627A8006F
:100EF0004647A8004667A9004687A90046A7A8005C
:100F000046C7A90046E7A9004707A9000000060058
:100F10009560A80000000600810022000200200069
:100F20000E0009008058EB00AD28A90002C8BF00E0
:100F30000820F800E0FF9F000820F90000000600EC
:100F40008C070200000000009480A80000C6B300D7
:100F500081E3B700C0C0B30082E3B70044222000A1
:100F6000441C8800DEC2A900E2C2A90000000600FD
:100F7000910188000300E000130032000000AF0080
:100F8000060037003059BA008301E9000E00320034
:100F90001059BA008301E9000B0032000000E9009B
:100FA00030D9BA008301E900070032000059EB0094
:100FB0008301E9000000E8000000E0004220AF00EB
:100FC0003220EC00EBFF370000000600851F7800A0
:100FD000D028EF00D228EF00E4BF2A00A446880002
:100FE000D628EF00D488BF00B1468000228D2000B3
:100FF00023002000B807020000000000D2C8BF0094
:10100000D0E8B700D3C8BF00D1E8B700D008F800D7
:101010000000F900CF02780000000600D288BF006F
:10102000545525000400E10004003200A4AA2A005F
:101030000400E10005003200080037000348AF005B
:10104000010037000308A800040037000368AF0060
:10105000010037000328A800000037000000060048
:101060002021EF0094D02300E40888000403280026
:10107000040988001821EF009780A800A4AA2A007C
:10108000944688000E080200000000005455250018
:10109000944688000E0802000000000000000600D0
:1010A0000100220002002000070009008058EB0028
:1010B0000000060050080200000000009963EF00E5
:1010C000D0C0B3009AE3B70004302000041D8800AC
:1010D00099E3A9009863EF0004002200E41C880053
:1010E00099C3AE000300370074002000141D88006F
:1010F0000200370034002000141D880099E3A80086
:101100009700A8000000060021E3A9002143A800E1
:1011100023A3A90023C3A90023E3A900646020003E
:10112000241988002A03A8002A23A80034FF2900D4
:101130006419880064002000441988002303A90072
:101140002323A9002063A9002E03A9002E23A900B0
:10115000C4002600841988002043A80020A3A8000A
:1011600020C3A80020E3A8002103A9002123A9008F
:101170002243A8002263A8002283A90022A3A90079
:101180003223EF005A080200000000002183A9006A
:101190002343A8002223A90021E3A80000000600A1
:1011A000E5E2A900E9E2A90000000600E5E2A900E5
:1011B000E9E2A80000000600D648E20003003A0079
:1011C000D00802000000000002003700D60802002C
:1011D0000000000000000600851F780085468000A2
:1011E000944680008402980020002000D008B400BB
:1011F00080027800E40F2000954A62000001200080
:10120000D008B40080027800804AEB0000C0B30030
:101210009042980020012000D008B400800278009D
:1012200014002000954A7200E0002000D008B400AD
:1012300080027800804AEB00CF02780000000600B0
:10124000D668EF00DC080200000000001221EF0069
:10125000440D2300740888000401280094088800C5
:10126000D4002000240C8800D4002000540C8800F6
:10127000D4002000840C8800D4002000B40C880026
:10128000D4002000E40C8800D4002000140D880055
:101290008221EF00A4862100040C8800A48621008E
:1012A000440C88008621EF008E21EF00A4862100E7
:1012B000640C88009421EF00A4862100940C88001F
:1012C0009A21EF00A4862100C40C8800A021EF0021
:1012D000A4862100F40C880003E8A900848520007E
:1012E000844688003400200094468800440D230082
:1012F000A4468800D628EF00D828EF00EC080200AA
:1013000000000000C48620008446880044002000BD
:1013100094468800440D2300A4468800D628EF0098
:10132000D828EF00EC08020000000000048820002C
:10133000844688005400200094468800440D230011
:10134000A4468800D628EF00D828EF00EC08020059
:1013500000000000448920008446880064002000CA
:1013600094468800440D2300A4468800D628EF0048
:10137000D828EF00EC080200000000000000060082
:101380009A00A9002E21EF0024A12700540988000B
:1013900004032800740988002621EF009A00A800A1
:1013A0000000060052060200000000006A0302006E
:1013B00000000000C009020000000000000006005C
:1013C000DEC2A900E2C2A8002322AF00FEFF370060
:1013D000D2C8BF000000FB0024A2B700000000003C
:1013E0002302AE00FEFF3700DEC2A900E2C2A90060
:1013F00000000600851F7800861F7800E1082000A5
:101400000600A10000F0A600030037000600A000BF
:101410000000EA00000037000000E0001400320085
:1014200000F0A700040037004200A9000080D200AD
:101430008100E900FAFF37000180FD004200A900A9
:101440008180D30000F0A1000080FD008140680091
:101450000040B2000600A70001F0A000070037001E
:10146000014078000170A0000140B2000300370085
:101470000000EB008000EB00000037004F03780015
:10148000CF02780000000600851F7800861F7800D4
:10149000D688BF00A44680000020E1001700340079
:1014A00020002000D208B40080027800E40F200061
:1014B000954A620040002000D208B4008002780003
:1014C000B44680008402980060002000D208B40076
:1014D00080027800A446800084029800E00020008A
:1014E000D208B40080027800154078000160EF0057
:1014F00062007000804A780022003700D488BF0064
:10150000B44680000020E1001700340020002000D5
:10151000D208B4008002780014002000954A7200BE
:1015200040002000D208B40080027800A446800069
:101530008402980060002000D208B4008002780085
:10154000B446800084029800E0002000D208B40075
:1015500080027800154078000160EF0064007000A0
:10156000804A780007003700E0002000D208B4006D
:1015700080027800154078000160EF006100700083
:10158000804A7800A0002000D208B40080027800D1
:1015900060002000D208B400100378004000200052
:1015A000D208B40000027800140078000000530054
:1015B000FA0902000000000004002000B41A7800BC
:1015C000B41A78004F037800CF02780000000600BC
:1015D000851F7800DEC2A900E2C2A8002322AF0066
:1015E000FEFF3700D3C8BF00804278000B60EF00D9
:1015F00005027800F40FB2002411880000000000FA
:101600002302AE00FEFF37002322AF00FEFF3700AB
:10161000D288BF00F00FB20024A2B7000000000083
:101620002302AE00FEFF3700DEC2A900E2C2A9001D
:10163000CF0278000000060000000600E8C8BF00E6
:101640004DE8B7001C0B020000000000000006007F
:1016500000000600E8C8BF00A8E8B700280B020099
:10166000000000000000060000000600E8C8BF00FF
:10167000A9E8B700340B02000000000000000600DB
:1016800000000600E8C8BF00AAE8B700400B02004F
:101690000000000000000600ABC8BF000000FB0017
:1016A000610060000000E00003003200DE22A900BB
:1016B000E222A90002003700DE22A900E222A800EF
:1016C000ABC8BF000000FB00700060000000E0003D
:1016D00003003200DE02A900E202A9000200370086
:1016E000DE02A900E202A80000000600E8C8BF0070
:1016F000ABE8B7004C0B0200000000000000060041
:10170000DEC8BF00E8E8B7001E0B020000000000C2
:10171000DFC8BF00E8E8B7002A0B020000000000A5
:10172000E0C8BF00E8E8B700360B02000000000088
:10173000E1C8BF00E8E8B700420B0200000000006B
:10174000E2C8BF00E8E8B700760B02000000000026
:1017500000000600AD28A800DEC2A900E2C2A80071
:1017600081E3A90010C0B30080E3B7008400220029
:10177000241C8800E808F8008A03F90081E3A80027
:1017800083E3A800000006008C07020000000000B0
:10179000400081000080FD0000C4B3000080FD0017
:1017A00040008900DEC8BF000A20F800E0FF9F006B
:1017B0000A20F900DFC8BF000A20F800F0FF9F00F0
:1017C0000A20F900E0C8BF000C20F800E0FF9F00ED
:1017D0000C20F900E1C8BF000C20F800F0FF9F00CA
:1017E0000C20F900E2C8BF000E20F800E0FF9F00C7
:1017F0000E20F9008400200044478800AA0B020054
:1018000000000000000006008C070200000000003D
:10181000400081000080FD0010C3B3000080FD0087
:1018200040008900D6C8BF000A20F800E0FF9F00F2
:101830000A20F9004400200044478800AA0B020057
:1018400000000000000006008C07020000000000FD
:10185000400081000080FD00A0C3B3000080FD00B7
:1018600040008900D6C8BF000A20F800E0FF9F00B2
:101870000A20F9004400200044478800AA0B020017
:1018800000000000000006008C07020000000000BD
:10189000400081000080FD0020C3B3000080FD00F7
:1018A00040008900D6C8BF000A20F800E0FF9F0072
:1018B0000A20F9004400200044478800AA0B0200D7
:1018C00000000000000006008C070200000000007D
:1018D000400081000080FD0010C4B3000080FD00C6
:1018E00040008900D6C8BF000A20F800E0FF9F0032
:1018F0000A20F9004400200044478800AA0B020097
:1019000000000000000006008C070200000000003C
:10191000400081000080FD0020C4B3000080FD0075
:1019200040008900D6C8BF000A20F800E0FF9F00F1
:101930000A20F9004400200044478800AA0B020056
:101940000000000000000600851F78008C070200E0
:1019500000000000400081000080FD0070C4B30062
:101960000080FD0040008900D3C8BF00804278009D
:101970000B60EF00050078000A20F800E0FF9F00F0
:101980000A20F900D288BF00F00FB2000A20F80048
:10199000F0FF9F000A20F90054002000444788000F
:1019A000AA0B020000000000CF0278000000060031
:1019B0008C07020000000000400081000080FD0054
:1019C00080C4B3000080FD00400089005000810009
:1019D00000C4B30050008900500081000080FD0069
:1019E00010C3B3000080FD0050008900600081003A
:1019F000A0C3B30060008900600081000080FD008A
:101A000020C3B3000080FD006000890070008100E9
:101A100010C4B30070008900700081000080FD00D8
:101A200020C4B3000080FD007000890080008100A8
:101A300070C4B30080008900800081000080FD0038
:101A400060C4B3000080FD00800089009000810028
:101A500050C5B30090008900C400200044478800AE
:101A6000AA0B020000000000000006008C07020024
:101A700000000000400081000080FD0060C4B30051
:101A80000080FD00400089005000810070C1B3005B
:101A900050008900500081000080FD0030C0B3007C
:101AA0000080FD00500089006000810000C2B3008A
:101AB00060008900600081000080FD0060C1B3000B
:101AC0000080FD0060008900740020004447880009
:101AD000AA0B020000000000000006008C070200B4
:101AE00000000000D6C8BF000820F800F0FF9F00EB
:101AF0000820F900D7C8BF000A20F800E0FF9F00C7
:101B00000A20F9004400200044478800AA0B020084
:101B100000000000000006008C070200000000002A
:101B2000D6C8EE000820F800F0FF9F000820F9005A
:101B30003400200044478800AA0B02000000000087
:101B400000000600851F7800C50020000300090082
:101B5000B51F7800AD08AE00B9013700C2C8BF009C
:101B60000248E300A6013A00C3C8BF000000FB0022
:101B70004081B2001B0032007080B20031003200A0
:101B80001080B200390032003080B20049003200CB
:101B90001085B200610032001087B200B20032003E
:101BA000B080B200CB0032008080B200E40032008E
:101BB0003087B200FD0032003080B20016013200E2
:101BC0005080B2002F013200F080B20037013200A5
:101BD000E080B2003D0132003081B20043013200AA
:101BE00073013700C4C8BF000000FB006100600043
:101BF00003E8A9000000AF0003E8A800C5C8BF00C3
:101C00000000FB00F00FB200ACE8B700C7C8BF008F
:101C1000AEE8B700C6C8BF00AFE8B70002C8BF0053
:101C2000D2E8B700E00902000000000040C1B300A4
:101C3000D2E8B700E009020000000000C028EF0071
:101C40006A01370084852000944688000C08F8005B
:101C5000D408F9001408F800D608F900440A020074
:101C600000000000C028EF0060013700C4C8BF00BA
:101C70000000FB00E1026000D608F800E5FF9F00CD
:101C8000D608F900DC0802000000000002C8BF000E
:101C9000D2E8B700E00902000000000020C1B30054
:101CA000D2E8B700E009020000000000C028EF0001
:101CB0004E01370002C8BF00D2E8B700E0090200B9
:101CC0000000000010C1B300D2E8B700E009020034
:101CD000000000000408F800D208F900E80A020039
:101CE000000000000608F800D208F900E80A020027
:101CF000000000000808F800D208F900E80A020015
:101D0000000000000A08F800D208F900E80A020002
:101D100000000000C028EF003401370004468000B6
:101D20006620E1004F003500C4C8BF000000FB0082
:101D300080027800F50FB200C5C8BF000000FB00AC
:101D400000037800F60FB200C6C8BF000000FB0019
:101D500080037800F70FB200C7C8BF000000FB0087
:101D600000047800F80FB200C8C8BF000000FB00F4
:101D700080047800F90FB200DE08F800E5FF9F004C
:101D8000DE08F900DE08F800F6FF9F00DE08F90023
:101D9000E008F800E7FF9F00E008F900E008F8001D
:101DA000F8FF9F00E008F900E208F800E9FF9F0053
:101DB000E208F900800B020000000000C4C8BF0068
:101DC0000000FB0080027800F50FB200C5C8BF001C
:101DD0000000FB0000037800F60FB200C6C8BF0089
:101DE0000000FB0080037800F70FB200C7C8BF00F7
:101DF0000000FB0000047800F80FB200C8C8BF0064
:101E00000000FB0080047800F90FB200DE08F80043
:101E1000E5FF9F00DE08F900DE08F800F6FF9F00EE
:101E2000DE08F900E008F800E7FF9F00E008F9008D
:101E3000E008F800F8FF9F00E008F900E208F80069
:101E4000E9FF9F00E208F900C40B02000000000057
:101E5000A4AA2A00944688000E0802000000000090
:101E6000C028EF00E1003700044680006320E10055
:101E700017003500C4C8BF000000FB0080027800D6
:101E8000F50FB200E808F800E5FF9F00E808F90048
:101E90001E0B020000000000C4C8BF000000FB00D1
:101EA00080027800F50FB200D608F800E5FF9F0029
:101EB000D608F900040C020000000000A4AA2A00C1
:101EC000944688000E08020000000000C028EF00C1
:101ED000C6003700044680006320E100170035008B
:101EE000C4C8BF000000FB0080027800F50FB200FC
:101EF000E808F800E5FF9F00E808F9002A0B020057
:101F000000000000C4C8BF000000FB008002780091
:101F1000F50FB200D608F800E5FF9F00D608F900DB
:101F2000240C020000000000A4AA2A0094468800A5
:101F30000E08020000000000C028EF00AB003700D0
:101F4000044680006320E10017003500C4C8BF00CC
:101F50000000FB0080027800F50FB200E808F800EE
:101F6000E5FF9F00E808F900360B020000000000C2
:101F7000C4C8BF000000FB0080027800F50FB2006B
:101F8000D608F800E5FF9F00D608F900440C0200CF
:101F900000000000A4AA2A00944688000E0802004F
:101FA00000000000C028EF009000370004468000C9
:101FB0006320E10017003500C4C8BF000000FB002B
:101FC00080027800F50FB200E808F800E5FF9F00F6
:101FD000E808F900420B020000000000C4C8BF007E
:101FE0000000FB0080027800F50FB200D608F80070
:101FF000E5FF9F00D608F900640C02000000000015
:10200000A4AA2A00944688000E08020000000000DE
:10201000C028EF0075003700044680006320E1000F
:1020200017003500C4C8BF000000FB008002780024
:10203000F50FB200E808F800E5FF9F00E808F90096
:10204000760B020000000000C4C8BF000000FB00C7
:1020500080027800F50FB200D608F800E5FF9F0077
:10206000D608F900840C020000000000A4AA2A008F
:10207000944688000E08020000000000C028EF000F
:102080005A003700CE08F800D208F900A40C02006C
:1020900000000000A4AA2A00944688000E0802004E
:1020A00000000000C028EF0050003700D80C0200EC
:1020B00000000000A4AA2A00944688000E0802002E
:1020C00000000000C028EF0048003700360D020075
:1020D00000000000A4AA2A00944688000E0802000E
:1020E00000000000C028EF0040003700C4C8BF0057
:1020F0000000FB0000027800F40FB2008446880064
:10210000D088BF00A08AB20001003200130037005F
:10211000C2C8BF00D2E8B700E0090200000000001A
:10212000C3C8BF00D2E8B700E00902000000000009
:10213000C4C8BF00D2E8B700E009020000000000F8
:10214000A4AA2A00944688000E080200000000009D
:102150000000FE00C028EF0013003700C3C8EE00E7
:102160000160EF0080427800F50FB200D608F80059
:10217000E5FF9F00D608F900801F7800C4C8BF00A3
:10218000D7E8B7004F0078006E0D02000000000095
:1021900054552500944688000E08020000000000F7
:1021A000C028EF0000003700C028EF000F00370004
:1021B000C3C8BF000000FB0080027800F50FB2002A
:1021C000D608F800E5FF9F00D608F9008C0D020044
:1021D0000000000054552500944688000E080200B7
:1021E00000000000C028EF0000003700C268EF00C8
:1021F000C368EF00C468EF00C028EF00010037009B
:10220000C028EF00AD08A900044680006A20E10064
:102210000B003400C028EF00C268EF00C368EF0075
:10222000C468EF00C568EF00C668EF00C768EF003C
:10223000C868EF00C968EF00CA68EF00CB68EF001C
:102240002501200003000900CF127800CF0278009A
:102250000000060084852000944688000C08F800E1
:10226000D408F9001408F800D608F900440A02005E
:1022700000000000C4862000944688000E08F80084
:10228000D408F9001608F800D608F900440A02003C
:102290000000000004882000944688001008F80020
:1022A000D408F9001808F800D608F900440A02001A
:1022B0000000000044892000944688001208F800BD
:1022C000D408F9001A08F800D608F900440A0200F8
:1022D0000000000003A8AE002D00370002C8BF00B8
:1022E000D2E8B700E00902000000000030C1B300EE
:1022F000D2E8B700E0090200000000000C08F80076
:10230000D208F900E80A0200000000000E08F800F8
:10231000D208F900E80A0200000000001008F800E6
:10232000D208F900E80A0200000000001208F800D4
:10233000D208F900E80A0200000000001408F800C2
:10234000D208F900E80A0200000000001608F800B0
:10235000D208F900E80A0200000000001808F8009E
:10236000D208F900E80A0200000000001A08F8008C
:10237000D208F900E80A0200000000004CC8BF00C3
:10238000D2E8B700E00902000000000003A8A9009D
:1023900000000600851F7800C50020000400090029
:1023A000B51F78000002780081027800830378006E
:1023B000020378004200A9004220A9008180D200D7
:1023C0000180FD00F10FB2000100E0004B0032007F
:1023D0004200A9004220A9008381D2000380FD00B1
:1023E000F30FB2000300E000440032000080FB0065
:1023F00001C0410004003100F007B1003F0032008D
:102400003E003900020037001048B0003B003100A8
:1024100007856A004200A9004220A900F50FB2001A
:102420000570A0004200A900F70FB2000770A000DD
:102430000621B800062CB80083014C008900780002
:102440004200AF008100E8004200A900043CB8004F
:1024500083014C0081804C00072CB80081004C00A7
:102460000000E8000100E0004220AF00010037005A
:10247000030037000300E0004220AF0005003700F2
:1024800001F0A700030037008381D2008180D200D1
:102490000000E900010178004200A9000370A600D5
:1024A0000900370007F02F00878161000310B0009A
:1024B000600149000200E00003003A000300E00070
:1024C00001003A000000E8000080FD004200A90081
:1024D0004220A9008080D3000AF0A70001F0A000EC
:1024E00002F0A1000280FD00814069000380FD0030
:1024F000034178000200780003003700000020004C
:102500000100200000003700450120000400090000
:10251000CF127800CF02780000000600851F7800F7
:10252000C500200004000900B51F78008004EB00FE
:102530008384680001037800800278000304780037
:10254000820378008180D2000180FD008180FB0041
:102550000100E0004E0032008381D2000380FD00C4
:102560008381FB000300E000490032000000EB0023
:1025700003C0500003003900F047B00044003100B0
:10258000030037001048B10041003900400032001C
:1025900085007800060178000270A000F20FB200FA
:1025A000F80FB2000870A0009A0120008001EB0033
:1025B0000002EB0087805000080159000200330040
:1025C0000400310004003A008780400008014900FF
:1025D000010037000400A0000A05E90007003200EE
:1025E0004200A9008180D2000281D2004200A900ED
:1025F0000482D2008381D200EEFF37000005EB0099
:102600000380A70001003700060037004200A90040
:102610008381D3000370A1000482D3000A85D20015
:10262000020037000000E900190032000AF0A7009C
:10263000050039008180D2000281D20087805000DD
:1026400008015900090039000402E80007003A00B7
:102650008301E80005003A000000E8000C003200A9
:10266000020037000000E900090032000080FD0090
:102670008080D30001F0A00009F0A60001F0A100C5
:102680000370A10081C069000400780003003700D6
:10269000000020000100200000003700450120005C
:1026A00004000900CF127800CF0278000000060075
:1026B0000001780081017800014078000080FD0071
:1026C00000F0A0008180D2000180FD008180FB002D
:1026D000E408200081405200060032000000E000C3
:1026E000040032004200A9000080D3008100E9000C
:1026F000FAFF3A0003F0A600020037000000EA00EB
:102700000000370000000600851F7800861F780053
:10271000871F7800881F780020012000D808B400A7
:10272000104278000400A60056013700E0002000A7
:10273000D808B400904278008502FB00E282620073
:10274000E0002000D808B400904378008703FB0025
:1027500064806300008072000000E00049013200E4
:10276000DE28EF00E028EF00E228EF00DC88BF0061
:10277000D44680000020E10091003400D44680005F
:10278000E346800003005200FA0902000000000046
:10279000E0A8B70011478800E088BF00114780001B
:1027A0000200250033542400CA110200000000007A
:1027B0008002780001037800A0002000D808B4004F
:1027C0000002780003002000B4197800B4197800E2
:1027D000000178008101780005007800860078000B
:1027E0008E12020000000000E4A8B7003147880004
:1027F000E488BF0031478000581302000000000049
:10280000DEA8B70020002000D808B40010427800ED
:102810000400A60029003700C54680001540780056
:102820000000FB003080B200070032007080B20070
:102830000C0032001080B200110032003080B20073
:10284000160032001C003700A4862100F3468000E9
:1028500084824100DE08F8008E01F900650C8800D2
:1028600015003700A4862100F346800084824100D1
:10287000DE08F8009401F900950C88000E0037007E
:10288000A4862100F346800084824100DE08F8001F
:102890009A01F900C50C880007003700A4862100C2
:1028A000F346800084824100DE08F800A001F900B0
:1028B000F50C88000000370040003700C546800056
:1028C000154078000000FB003080B20007003200A5
:1028D0007080B200120032001080B2001D00320081
:1028E0003080B2002800320034003700440D23004D
:1028F000F346800083025200440D2300F34680001B
:1029000003005200440D230000005200A486210061
:1029100000035200750C8800660C88002700370001
:10292000440D2300F346800083025200440D23002F
:10293000F346800003005200440D230000005200C3
:10294000A486210000035200750C8800660C8800E4
:102950001A003700440D2300F34680008302520022
:10296000440D2300F346800003005200440D230071
:1029700000005200A486210000035200750C88005C
:10298000660C88000D003700440D2300F3468000DC
:1029900083025200440D2300F346800003005200DE
:1029A000440D230000005200A486210000035200C1
:1029B000750C8800660C880000003700B1003700F5
:1029C000DA88BF00E44680000020E1009100340076
:1029D000E4468000D346800003005200FA0902005A
:1029E00000000000E0A8B70011478800E088BF00A1
:1029F000114780000200250033542400CA11020050
:102A0000000000008002780001037800A000200090
:102A1000D808B4000002780003002000B419780040
:102A2000B419780000017800810178000500780071
:102A3000860078008E12020000000000E8A8B700AF
:102A400051478800E888BF005147800058130200B2
:102A500000000000DEA8B70020002000D808B40065
:102A6000104278000400A60041003700C5468000EF
:102A7000154078000000FB003080B20007003200F3
:102A80007080B200120032001080B2001D003200CF
:102A90003080B2002800320034003700440D23009B
:102AA000F346800083025200440D2300F346800069
:102AB00003005200440D230000005200A4862100B0
:102AC00000035200750C8800660C88002700370050
:102AD000440D2300F346800083025200440D23007E
:102AE000F346800003005200440D23000000520012
:102AF000A486210000035200750C8800660C880033
:102B00001A003700440D2300F34680008302520070
:102B1000440D2300F346800003005200440D2300BF
:102B200000005200A486210000035200750C8800AA
:102B3000660C88000D003700440D2300F34680002A
:102B400083025200440D2300F3468000030052002C
:102B5000440D230000005200A4862100000352000F
:102B6000750C8800660C88000000370028003700CC
:102B7000C5468000154078000000FB003080B200A0
:102B8000070032007080B2000C0032001080B200EA
:102B9000110032003080B200160032001C003700F5
:102BA000A4862100F346800084824100DE08F800FC
:102BB0008E01F900650C880015003700A4862100FD
:102BC000F346800084824100DE08F8009401F90099
:102BD000950C88000E003700A4862100F346800083
:102BE00084824100DE08F8009A01F900C50C8800D3
:102BF00007003700A4862100F3468000848241004C
:102C0000DE08F800A001F900F50C8800000037008C
:102C10001C003700C5468000154078000000FB000E
:102C20003080B200070032007080B200090032002C
:102C30001080B2000B0032003080B2000D00320074
:102C4000100037008E21EF00A4862100640C88005C
:102C50000C0037009421EF00A4862100940C88001A
:102C6000080037009A21EF00A4862100C40C8800D8
:102C700004003700A021EF00A4862100F40C880096
:102C8000000037004F047800CF0378004F0378002E
:102C9000CF02780000000600D0C8BF000000FB0093
:102CA0003080B200070032007080B2000E003200A7
:102CB0001080B200150032003080B2001C003200DB
:102CC0002400370084852000C44688000408F800EA
:102CD000DA08F900D208F800DC08F90084130200D1
:102CE000000000001B003700C4862000C446880096
:102CF0000608F800DA08F900D208F800DC08F90044
:102D00008413020000000000120037000488200035
:102D1000C44688000808F800DA08F900D208F8006C
:102D2000DC08F900841302000000000009003700ED
:102D300044892000C44688000A08F800DA08F9002F
:102D4000D208F800DC08F90084130200000000003B
:102D500000003700000006000F782200F07F2200FC
:102D600020A0B70000000000404424004005880077
:102D7000404424008005880081E0A80000802000F5
:102D8000E1FF2000018009000018EB00DEC2A9006D
:102D9000E2C2A9000028EF00040028000411880006
:102DA00004402000141188005401200044118800C0
:102DB0000268EF000308A9000328A9000348A9003E
:102DC0000368A9000388A9000428EF000628EF0083
:102DD0000828EF000A28EF000C28EF000E28EF006B
:102DE0001028EF001228EF001428EF001628EF003B
:102DF0001828EF001A28EF003C28EF003E28EF00CB
:102E00004028EF004228EF004428EF004628EF005A
:102E10004828EF004A28EF004C68EF004E28EF00EA
:102E20005028EF005228EF0003A8A9005428EF0013
:102E30005628EF0003C8A9004D68EF00A868EF000E
:102E4000A968EF00AA68EF00AB68EF00AC68EF007C
:102E5000AE28EF0003E8A900B028EF00B228EF0089
:102E6000B428EF00B628EF00B828EF00BA28EF002A
:102E7000BC28EF00BE28EF00C028EF00AD08A90075
:102E8000F402200064468800AD28A900CE28EF0097
:102E90002CA3EF002AA3EF001C28EF001E28EF0050
:102EA0002028EF002228EF002428EF002628EF003A
:102EB0002828EF002A28EF002C28EF002E28EF000A
:102EC0003028EF003228EF003428EF003628EF00DA
:102ED0003828EF003A28EF00C228EF00C428EF009E
:102EE000C628EF00C828EF00CA28EF0066070200D6
:102EF00000000000880702000000000050C8B30076
:102F000002E8B700A007020000000000E607020088
:102F100000000000CEA8B70030080200000000004A
:102F200084080200000000002009020000000000E8
:102F300081E0A9004220EF0081E0A80010C0B300AA
:102F4000D6E8B700DC08020000000000D209020049
:102F5000000000005C02020000000000A20D020060
:102F6000000000002A11020000000000ACC8BF00F1
:102F7000D0E8B700AE08F800D208F9004C160200FD
:0C2F800000000000F3FF37000040FE00DE
:020000040001F9
:0457FC00AFC7000033
:0200000401F009
:10000000CF0000FFCF0000FF070000FF830000FFCC
:10001000C60000FF5F0000FFE60000FFC30000FF16
:00000001FF
;PIC24HJ64GP206
;CRC=D5DB  CREATED="01-апр-16 17:04"
