:08000000FA1A040000000000E0
:04001C003A030000A3
:0400380014030000AD
:04005400AC020000FA
:04008800660200000C
:08009400EC0200000002000074
:0400E8007E06000090
:100400004200F8003600F8003200F800801F780043
:10041000200020000C000900B01F78000308AE0087
:1004200005003700E502A900E902A8000308A900B9
:100430000348A80003003700E502A900E902A9006B
:100440000348A9000328AE0005003700E4E2A90034
:10045000E8E2A9000328A9000368A8000300370008
:10046000E4E2A900E8E2A8000368A9008780A900E7
:100470001821EF008780A900A00120000C000900CE
:100480004F1078004F0078003200F9003600F90074
:100490004200F900004006000000810000027800E0
:1004A0002440880010008100000278003440880059
:1004B0002000810000027800444088003000810064
:1004C0000002780054408800000006004200F80056
:1004D0003600F8003200F800801F7800200020006D
:1004E0000C000900B01F78004C0202000000000060
:1004F0008700A900A00120000C0009004F1078001F
:100500004F0078003200F9003600F9004200F9008F
:10051000004006002202AE00FEFF37002202F80073
:100520000008F900301180002222A9000000060016
:100530001E21EF008760A9001421EF001E21EF00AB
:100540003009F8001A01F90004032800F4088800B3
:100550009760A800000006004200F8003600F8008E
:100560003200F800801F7800200020000C000900F5
:10057000B01F7800649220002349800084824100EB
:100580008A02020000000000804A78002429EC0062
:10059000244980006920E100010034002429EF0093
:1005A000030009002682BF008560A90098020200AE
:1005B000000000008560A900A00120000C000900D7
:1005C0004F1078004F0078003200F9003600F90033
:1005D0004200F900004006004200F8003600F80032
:1005E0003200F800801F7800200020000C00090075
:1005F000B01F78001E21EF008760A9002129A80004
:100600001421EF008760A900A00120000C00090060
:100610004F1078004F0078003200F9003600F900E2
:100620004200F900004006004200F8003600F800E1
:100630003200F800801F7800200020000C00090024
:10064000B01F78002149A900DEC2A900E2C2A900BA
:100650008480A900A00120000C0009004F10780040
:100660004F0078003200F9003600F9004200F9002E
:10067000004006004200F8003600F8003200F800A2
:10068000801F7800200020000C000900B01F7800B7
:1006900080A0A900A00120000C0009004F107800E4
:1006A0004F0078003200F9003600F9004200F900EE
:1006B000004006000C28EF000E28EF001028EF0085
:1006C0001228EF001428EF001628EF001828EF007A
:1006D0001A28EF00C1812000020020000700090055
:1006E0008058EB0041822000020020000700090032
:1006F0008058EB00C18220000200200007000900A2
:100700008058EB0041832000020020000700090010
:100710008058EB004E28EF005028EF005228EF00E1
:1007200003A8A90003C8A900000006005428EF0090
:100730005628EF0003A8A900000006007EC9BF00EC
:100740000000FB003080B200070032007080B20071
:10075000110032001080B2001B0032003080B20065
:1007600025003200300037007F49E20005003200EA
:10077000A40F2000740C880044962100640C8800AB
:1007800004003700A4FD2200740C880004772100C7
:10079000640C8800240037007F49E2000500320025
:1007A000A40F2000A40C880044962100940C88001B
:1007B00004003700A4FD2200A40C88000477210067
:1007C000940C8800180037007F49E20005003200D1
:1007D000A40F2000D40C880044962100C40C88008B
:1007E00004003700A4FD2200D40C88000477210007
:1007F000C40C88000C0037007F49E200050032007D
:10080000A40F2000040D880044962100F40C8800F9
:1008100004003700A4FD2200040D880004772100A5
:10082000F40C880000003700000006007C49E2005C
:100830001900320030C0B3007EE9B70010C0B30029
:100840007FE9B7009E0302000000000040C0B30033
:100850007EE9B70010C0B3007FE9B7009E03020035
:100860000000000050C0B3007EE9B70010C0B30024
:100870007FE9B7009E0302000000000060C0B300E3
:100880007EE9B70010C0B3007FE9B7009E03020005
:10089000000000001400370030C0B3007EE9B7004C
:1008A0007F69EF009E0302000000000040C0B3001B
:1008B0007EE9B7007F69EF009E03020000000000A0
:1008C00050C0B3007EE9B7007F69EF009E030200CD
:1008D0000000000060C0B3007EE9B7007F69EF0050
:1008E0009E0302000000000000000600851F780043
:1008F000861F780000FF2F007E09B6008002780076
:1009000000FF2F008009B6000028E100020032003D
:100910000040EB000100370010C0B30080427800B7
:1009200000FF2F008209B6000003780000FF2F00AF
:100930008409B6000030E100020032000040EB0004
:100940000100370010C0B30080C2620000FF2F001A
:100950007E09B6000003780000FF2F008209B60070
:100960000030E100020032000040EB0001003700DF
:1009700010C0B30000C062000004E00004003200B8
:1009800010C0B30000E0B7000300370002003700DA
:100990000060EF00000037004F037800CF027800BE
:1009A00000000600851F7800861F7800871F7800EA
:1009B000881F78007C09A900B44280006220B8003A
:1009C000C4812000840240002440800084029800FA
:1009D000B44280006220B8004482200084024000BB
:1009E0003440800084029800B44280006220B80045
:1009F000C4822000840240004440800084029800A9
:100A0000B44280006220B800448320008402400089
:100A100054408000840298005628EC00B4428000C4
:100A20006420E100010035005628EF001C08F800A2
:100A30007E09F9001E08F8008009F9002008F80076
:100A40008209F9002208F8008409F90076040200FE
:100A5000000000007C29A9000000AF007C29A8004C
:100A60002408F8007E09F9002608F8008009F9003A
:100A70002808F8008209F9002A08F8008409F9001A
:100A800076040200000000007C49A9000000AF00CD
:100A90007C49A8002C08F8007E09F9002E08F8000F
:100AA0008009F9003008F8008209F9003208F800DE
:100AB0008409F90076040200000000007C69A900A6
:100AC0000000AF007C69A8003408F8007E09F90036
:100AD0003608F8008009F9003808F8008209F900A2
:100AE0003A08F8008409F9007604020000000000CA
:100AF0007C89A9000000AF007C89A8000000EB0001
:100B00007C29AF000000E800004378000000EB0003
:100B10007C49AF000000E800804263000000EB0069
:100B20007C69AF000000E800004478000000EB00A2
:100B30007C89AF000000E8000040640000C0620053
:100B40000004E000010032007C09A8000000EB0076
:100B50007C09AF000000E8004F047800CF03780064
:100B60004F037800CF027800000006000408F80068
:100B70003C08F9000608F8004008F9000808F800E9
:100B80004408F9000A08F8004808F90000000600C7
:100B90000408F8003E08F9000608F8004208F900C9
:100BA0000808F8004608F9000A08F8004A08F900A1
:100BB000000006003E88BF00E44180000020E10004
:100BC000050035003C08F8001408F9003E08F8005C
:100BD0000C08F900040037003E08F8001408F9007A
:100BE0003C08F8000C08F9004288BF00044280006D
:100BF0000020E100050035004008F8001608F90063
:100C00004208F8000E08F900040037004208F80016
:100C10001608F9004008F8000E08F9004688BF00E1
:100C2000244280000020E100050035004408F8005F
:100C30001808F9004608F8001008F9000400370009
:100C40004608F8001808F9004408F8001008F900F0
:100C50004A88BF00444280000020E10005003500C2
:100C60004808F8001A08F9004A08F8001208F900C4
:100C7000040037004A08F8001A08F9004808F8008C
:100C80001208F900000006009A00A9002621EF00D2
:100C900003C8A8001408F8001809F90000FC2F0088
:100CA0001829B6001608F8001A09F90000FC2F00F0
:100CB0001A29B6001808F8001C09F90000FC2F00DA
:100CC0001C29B6001A08F8001E09F90000FC2F00C4
:100CD0001E29B6000000060003A8A80000000600B8
:100CE00003E8A800000006004E08F8005008F900CC
:100CF0005208F8004E08F900000006004200F80013
:100D00003600F8003200F800801F78002000200034
:100D10000C000900B01F78005428EC00A4428000A9
:100D2000033220000418E10004003C0000C1B300BD
:100D30004CE8B70004202000944288004E88BF0091
:100D40000080B200150032001080B200180032009E
:100D50003080B2001B0032006080B2002000320000
:100D6000C080B200280032008081B2002B00320027
:100D70000083B2002E0032000086B2003200320042
:100D8000008CB2003A0032000098B2003D00320000
:100D900000B0B20040003200440037005A030200A5
:100DA0000000000014002000944288004400370036
:100DB00096030200000000002400200094428800F6
:100DC0003F00370010C0B3007CE9B70016040200F2
:100DD00000000000440020009442880038003700E2
:100DE000D2040200000000000004E0000300320012
:100DF0008400200094428800020037004400200054
:100E0000944288002E003700B60502000000000062
:100E10000401200094428800290037009603020054
:100E200000000000040220009442880024003700E3
:100E30007C69EF001604020000000000040420009A
:100E4000944288001E003700D20402000000000017
:100E50000004E000030032000408200094428800EF
:100E60000200370004042000944288001400370078
:100E7000C805020000000000041020009442880011
:100E80000F003700DA0502000000000004202000F7
:100E9000944288000A003700440602000000000067
:100EA0006C06020000000000050037004406020046
:100EB000000000006C060200000000000000370087
:100EC000700602000000000074060200000000002E
:100ED0008A00A900A00120000C0009004F10780032
:100EE0004F0078003200F9003600F9004200F900A6
:100EF000004006004407A9004427A8004447A90071
:100F00004467A9004487A90044C7A90044E7A90091
:100F10004607A9004627A8004647A8004667A9003B
:100F20004687A90046A7A80046C7A90046E7A9002A
:100F30004707A900000006009560A8000000060011
:100F400081002200020020000E0009008058EB0002
:100F50002149A90002C8BF000820F800E0FF9F0057
:100F60000820F90000000600A007020000000000B1
:100F70009480A80000C6B30081E3B700C0C0B300EE
:100F800082E3B70044222000441C8800DEC2A9008E
:100F9000E2C2A90000000600910188000300E00001
:100FA000130032000000AF00060037003059BA00CD
:100FB0008301E9000E0032001059BA008301E900F4
:100FC0000B0032000000E90030D9BA008301E900CB
:100FD000070032000059EB008301E9000000E8003F
:100FE0000000E0004220AF003220EC00EBFF3700B1
:100FF00000000600851F78003429EF003629EF0035
:10100000E4BF2A00C44988003A29EF003889BF00AC
:10101000D14980006293200023002000CC07020009
:101020000000000036C9BF0034E9B70037C9BF006F
:1010300035E9B7003409F8000000F900CF02780064
:10104000000006003E89BF00545525000400E10061
:1010500004003200A4AA2A000400E10005003200C6
:10106000080037000348AF00010037000308A8005C
:10107000040037000368AF00010037000328A80010
:1010800000003700000006002021EF0094D023006C
:10109000E408880004032800040988001821EF00F0
:1010A0009780A800A4AA2A00F44988002208020018
:1010B0000000000054552500F44988002208020071
:1010C00000000000000006000100220002002000D5
:1010D000070009008058EB000000060064080200C9
:1010E000000000009963EF00D0C0B3009AE3B7009E
:1010F00004302000041D880099E3A9009863EF00E4
:1011000004002200E41C880099C3AE0003003700ED
:1011100074002000141D88000200370034002000F5
:10112000141D880099E3A8009700A800000006009D
:1011300021E3A9002143A80023A3A90023C3A900F8
:1011400023E3A90064602000241988002A03A80072
:101150002A23A80034FF29006419880064002000B5
:10116000441988002303A9002323A9002063A900B0
:101170002E03A9002E23A900C4002600841988008C
:101180002043A80020A3A80020C3A80020E3A800B3
:101190002103A9002123A9002243A8002263A8005B
:1011A0002283A90022A3A9003223EF006E080200C7
:1011B000000000002183A9002343A8002223A900E6
:1011C00021E3A800000006004249E20003003A00C3
:1011D000E5E2A900E9E2A90002003700E5E2A90082
:1011E000E9E2A80000000600851F7800861F78004D
:1011F000A5498000B44980008402980020002000A6
:101200003409B40080027800E40F2000954A62009F
:10121000E00120003409B4008002780040C6B30029
:10122000804A780000C0B30090429800000220007D
:101230003409B4008002780050C3B300804A7800BB
:10124000C0C0B30090429800800220003409B4006E
:101250008002780014002000954A7200C00120002E
:101260003409B40080027800804AEB00800020003E
:101270003409B40080027800804AEB0000C0B3005B
:1012800090429800A00020003409B4008002780049
:10129000804AEB0000C0B30090429800000120009B
:1012A0003409B40080027800804AEB0000C0B3002B
:1012B0009042980000C0B300A042980000C0B30064
:1012C000B0429800400120003409B4008002780048
:1012D000804AEB0000C0B3009042980000C0B30009
:1012E000A042980000C0B300B04298004002200025
:1012F0003409B40080027800804AEB0000C0B300DB
:1013000090429800200220003409B4008002780046
:1013100050C3B300804A7800C0C0B3009042980028
:10132000600220003409B40080027800804AEB009B
:1013300000C0B30090429800E00220003409B400DD
:1013400080027800804AEB0000C0B3009042980011
:10135000A00220003409B40080027800E0012000DF
:101360003409B400100378004330DD00800A7800AF
:10137000C00220003409B40080027800E00120009F
:101380003409B400100378004333DD00F4FF2F006C
:1013900004B0B800800A78004F037800CF027800CC
:1013A000000006004269EF00E408020000000000AF
:1013B0001221EF00440D2300740888000401280066
:1013C00094088800D4002000240C8800D400200059
:1013D000540C8800D4002000840C8800D400200025
:1013E000B40C8800D4002000E40C8800D400200055
:1013F000140D88008221EF00A4862100040C8800CF
:10140000A4862100440C88008621EF008E21EF0085
:10141000A4862100640C88009421EF00A48621009A
:10142000940C88009A21EF00A4862100C40C880047
:10143000A021EF00A4862100F40C88002109A90056
:1014400084852000A449880034002000B449880025
:10145000440D2300C44988003A29EF003C29EF00DD
:10146000F40802000000000084882000A4498800DD
:1014700044002000B4498800440D2300C44988007A
:101480003A29EF003C29EF00F408020000000000B8
:10149000848B2000A449880054002000B4498800AF
:1014A000440D2300C44988003A29EF003C29EF008D
:1014B000F408020000000000848E2000A449880087
:1014C00064002000B4498800440D2300C44988000A
:1014D0003A29EF003C29EF00F40802000000000068
:1014E000000006009A00A9002E21EF0024A1270089
:1014F0005409880004032800740988002621EF009D
:101500009A00A80000000600440602000000000047
:101510005A03020000000000720A020000000000EE
:1015200003C8A900000006003409A900D302A800DE
:10153000D502AF00010037003409A8000000EB001D
:101540003409AF000000E80000000600DEC2A90078
:10155000E2C2A8002322AF00FEFF37003EC9BF0051
:101560000000FB0024A2B700000000002302AE0030
:10157000FEFF3700DEC2A900E2C2A900000006009B
:10158000851F7800200220003E09B4008002780008
:10159000044A800084029800CF0278000000060010
:1015A000851F7800861F7800E00120003E09B40006
:1015B00080027800044A800084029800A002200083
:1015C0003E09B40080027800E00120003E09B4002A
:1015D000100378004330DD00800A7800C00220004C
:1015E0003E09B40080027800E00120003E09B4000A
:1015F000100378004333DD00F4FF2F0004B0B8007F
:10160000800A78004F037800CF02780000000600BF
:10161000851F7800861F7800871F78000382680086
:1016200004F0A600060037004200A9004220A900ED
:1016300001F0A600260037004200A8002400370071
:1016400001027800800278000303780082037800AA
:101650008180D2000180FD008381D2000380FD00E3
:1016600081C051000500320004F0A60018003700C8
:101670001000200042E0B6001500370084407800DA
:10168000864178000170A1000370A10081C0510063
:101690000500320004F0A6000D0037001000200005
:1016A00042E0B6000A003700858053000500320092
:1016B00004F0A600060037001000200042E0B6004B
:1016C000030037004200A900010037000000370086
:1016D000CF0378004F037800CF02780000000600A7
:1016E000851F7800861F7800E10820000600A10011
:1016F00000F0A600030037000600A0000000EA008A
:10170000000037000000E0001400320000F0A700E5
:10171000040037004200A9000080D2008100E900E7
:10172000FAFF37000180FD004200A9008180D3004C
:1017300000F0A1000080FD00814068000040B20080
:101740000600A70001F0A000070037000140780064
:101750000170A0000140B200030037000000EB0060
:101760008000EB00000037004F037800CF027800C4
:1017700000000600851F7800C50020000400090055
:10178000B51F78008004EB008384680001037800B3
:101790008002780003047800820378008180D20000
:1017A0000180FD008180FB000100E0004E0032005E
:1017B0008381D2000380FD008381FB000300E000F1
:1017C000490032000000EB0003C050000300390064
:1017D000F047B00044003100030037001048B1006A
:1017E0004100390040003200850078000601780091
:1017F0000270A000F20FB200F80FB2000870A00053
:101800009A0120008001EB000002EB00878050006D
:1018100008015900020033000400310004003A00BE
:101820008780400008014900010037000400A00043
:101830000A05E900070032004200A9008180D200B9
:101840000281D2004200A9000482D2008381D2002A
:10185000EEFF37000005EB000380A7000100370012
:10186000060037004200A9008381D3000370A10065
:101870000482D3000A85D200020037000000E9008C
:10188000190032000AF0A700050039008180D2005B
:101890000281D200878050000801590009003900F8
:1018A0000402E80007003A008301E80005003A005E
:1018B0000000E8000C003200020037000000E900E0
:1018C000090032000080FD008080D30001F0A000FC
:1018D00009F0A60001F0A1000370A10081C0690019
:1018E0000400780003003700000020000100200001
:1018F000000037004501200004000900CF127800E5
:10190000CF02780000000600851F7800861F78004F
:10191000871F7800881F7800C00020004609B400A7
:10192000A4002000301A7800301A7800000020004F
:10193000010020000501780086017800080B0200F4
:101940000000000016003900000120004609B40024
:1019500080027800000220004609B40010037800DD
:10196000C00020004609B400E4002000301A7800CE
:10197000301A780006007800700B020000000000AA
:101980000701780088017800BA0B0200000000000F
:1019900004002000B41A7800B41A78000E00370052
:1019A000C00120004609B40080027800804AEB00A4
:1019B000000120004609B40080027800804AEB0054
:1019C00000C0B3009042980000C8B300A042980045
:1019D000F0C3B300B0429800800120004609B40073
:1019E00080027800E00120004609B400000278007F
:1019F00014007800700B02000000000004002000BA
:101A0000B41A7800B41A78004F047800CF03780035
:101A10004F037800CF02780000000600851F780091
:101A2000044A800053C320000418E10008003D0070
:101A3000000220003E09B4008002780050C3B300C9
:101A4000804A7800C0C0B30090429800050037007B
:101A5000000220003E09B40080027800044A8000A1
:101A6000840298003E09F8004609F900840C02003F
:101A700000000000CF02780000000600851F7800FB
:101A8000DEC2A900E2C2A8002322AF00FEFF370099
:101A90003FC9BF00804278000B60EF00050278006C
:101AA000F40FB20024118800000000002302AE00F1
:101AB000FEFF37002322AF00FEFF37003E89BF0044
:101AC000F00FB20024A2B700000000002302AE0015
:101AD000FEFF3700DEC2A900E2C2A900CF027800F3
:101AE000000006002149A800DEC2A900E2C2A80049
:101AF00081E3A90010C0B30080E3B7008400220096
:101B0000241C88005409F8008A03F90081E3A80026
:101B100083E3A80000000600A00702000000000008
:101B2000400081000080FD0000C4B3000080FD0083
:101B3000400089004AC9BF000A20F800E0FF9F006A
:101B40000A20F9004BC9BF000A20F800F0FF9F00EF
:101B50000A20F9004CC9BF000C20F800E0FF9F00EC
:101B60000C20F9004DC9BF000C20F800F0FF9F00C9
:101B70000C20F9004EC9BF000E20F800E0FF9F00C6
:101B80000E20F90084002000A44A8800720D020093
:101B90000000000000000600A00702000000000096
:101BA000400081000080FD0010C3B3000080FD00F4
:101BB0004000890042C9BF000A20F800E0FF9F00F2
:101BC0000A20F90044002000A44A8800720D020097
:101BD0000000000000000600A00702000000000056
:101BE000400081000080FD00A0C3B3000080FD0024
:101BF0004000890042C9BF000A20F800E0FF9F00B2
:101C00000A20F90044002000A44A8800720D020056
:101C10000000000000000600A00702000000000015
:101C2000400081000080FD0020C3B3000080FD0063
:101C30004000890042C9BF000A20F800E0FF9F0071
:101C40000A20F90044002000A44A8800720D020016
:101C50000000000000000600A007020000000000D5
:101C6000400081000080FD0010C4B3000080FD0032
:101C70004000890042C9BF000A20F800E0FF9F0031
:101C80000A20F90044002000A44A8800720D0200D6
:101C90000000000000000600A00702000000000095
:101CA000400081000080FD0020C4B3000080FD00E2
:101CB0004000890042C9BF000A20F800E0FF9F00F1
:101CC0000A20F90044002000A44A8800720D020096
:101CD0000000000000000600851F7800A007020039
:101CE00000000000400081000080FD0070C4B300CF
:101CF0000080FD00400089003FC9BF00804278009D
:101D00000B60EF00050078000A20F800E0FF9F005C
:101D10000A20F9003E89BF00F00FB2000A20F80047
:101D2000F0FF9F000A20F90054002000A44A880018
:101D3000720D020000000000CF02780000000600D3
:101D4000A007020000000000400081000080FD00AC
:101D500080C4B3000080FD00400089005000810075
:101D600000C4B30050008900500081000080FD00D5
:101D700010C3B3000080FD005000890060008100A6
:101D8000A0C3B30060008900600081000080FD00F6
:101D900020C3B3000080FD00600089007000810056
:101DA00010C4B30070008900700081000080FD0045
:101DB00020C4B3000080FD00700089008000810015
:101DC00070C4B30080008900800081000080FD00A5
:101DD00060C4B3000080FD00800089009000810095
:101DE00050C5B30090008900C4002000A44A8800B8
:101DF000720D02000000000000000600A0070200B3
:101E000000000000400081000080FD0060C4B300BD
:101E10000080FD00400089005000810070C1B300C7
:101E200050008900500081000080FD0030C0B300E8
:101E30000080FD00500089006000810000C2B300F6
:101E400060008900600081000080FD0060C1B30077
:101E50000080FD006000890074002000A44A880012
:101E6000720D02000000000000000600A007020042
:101E70000000000042C9BF000820F800F0FF9F00EA
:101E80000820F90043C9BF000A20F800E0FF9F00C6
:101E90000A20F90044002000A44A8800720D0200C4
:101EA0000000000000000600A00702000000000083
:101EB00042C9EE000820F800F0FF9F000820F9005A
:101EC00034002000A44A8800720D020000000000C7
:101ED00000000600851F7800C500200003000900EF
:101EE000B51F78002129AE002802370026C9BF009F
:101EF0000248E30015023A0027C9BF000000FB00BA
:101F00009081B20023003200F080B200370032002E
:101F10001080B2005B0032002080B2008F003200DF
:101F20001080B200B30032007080B200E8003200CE
:101F30001080B200F20032003080B20002013200A4
:101F40001085B2001A0132001087B200460132003B
:101F5000B080B200560132008080B20066013200CB
:101F60003087B200760132003080B2008601320044
:101F70005080B20096013200F080B2009E01320023
:101F8000E080B200A40132003081B200AA01320028
:101F9000DA0137003469EF00D302A800D502AE00A1
:101FA0000400370034C9BF000000FB000000A0009F
:101FB00034E9B70002C8BF003EE9B700A60A020034
:101FC0000000000090C1B3003EE9B700A60A02007D
:101FD0000000000034C9BF003EE9B700A60A0200B5
:101FE000000000002429EF00D301370029C9BF00F9
:101FF00036E9B70028C9BF0037E9B700848520005B
:10200000F44988003609F8004009F900C00A0200C6
:102010000000000084882000F44988003609F80098
:102020004009F900C00A020000000000848B200073
:10203000F44988003609F8004009F900C00A020096
:1020400000000000848E2000F44988003609F80062
:102050004009F900C00A0200000000002429EF0036
:1020600002C8BF003EE9B700A60A02000000000057
:1020700060C1B3003EE9B700A60A020000000000FC
:10208000AD0137002AC9BF0038E9B70029C9BF0030
:1020900039E9B70028C9BF000000FB00F00FB2000B
:1020A0003080B200070032007080B2000C003200B5
:1020B0001080B200110032003080B20016003200F1
:1020C0001C00370084852000F44988003809F80096
:1020D0004009F900D00A0200000000001500370096
:1020E00084882000F44988003809F8004009F90084
:1020F000D00A0200000000000E003700848B200090
:10210000F44988003809F8004009F900D00A0200B3
:102110000000000007003700848E2000F44988008A
:102120003809F8004009F900D00A02000000000058
:10213000000037002429EF0002C8BF003EE9B700C5
:10214000A60A02000000000070C1B3003EE9B7001B
:10215000A60A0200000000007701370029C9BF006D
:102160003AE9B70028C9BF003BE9B70084852000E1
:10217000F44988003A09F8004009F9000E0D020000
:102180000000000084882000F44988003A09F80023
:102190004009F9000E0D020000000000848B2000B1
:1021A000F44988003A09F8004009F9000E0D0200D0
:1021B00000000000848E2000F44988003A09F800ED
:1021C0004009F9000E0D0200000000002429EF0074
:1021D00002C8BF003EE9B700A60A020000000000E6
:1021E00050C1B3003EE9B700A60A0200000000009B
:1021F0005101370028C9BF000000FB0061006000EA
:102200002109A9000000AF002109A80029C9BF00C9
:102210000000FB00F00FB20020E9B7002BC9BF009F
:1022200022E9B7002AC9BF0023E9B70020C9BF00CF
:102230000000FB003080B200070032007080B20066
:10224000080032001080B200090032003080B20075
:102250000A0032000C0037002209F8001809F900C2
:10226000110037002209F8001A09F9000E003700A2
:102270002209F8001C09F9000B0037002209F800B8
:102280001E09F900080037002209F8001809F900B2
:102290002209F8001A09F9002209F8001C09F900BE
:1022A0002209F8001E09F90002C8BF003EE9B70084
:1022B000A60A02000000000040C1B3003EE9B700DA
:1022C000A60A0200000000002429EF001A013700CE
:1022D00002C8BF003EE9B700A60A020000000000E5
:1022E00030C1B3003EE9B700A60A020000000000BA
:1022F000840A0200000000002429EF000E013700CC
:1023000028C9BF000000FB00E10260004209F8009C
:10231000E5FF9F004209F900E40802000000000008
:1023200002C8BF003EE9B700A60A02000000000094
:1023300020C1B3003EE9B700A60A02000000000079
:102340002429EF00FC00370002C8BF003EE9B700B7
:10235000A60A02000000000010C1B3003EE9B70069
:10236000A60A0200000000000408F8003E09F90077
:102370003E0D0200000000000608F8003E09F900CA
:102380003E0D0200000000000808F8003E09F900B8
:102390003E0D0200000000000A08F8003E09F900A6
:1023A0003E0D0200000000002429EF00E20037008B
:1023B000244980006620E1002A00350028C9BF00BA
:1023C0000000FB0080027800F50FB20029C9BF00B1
:1023D0000000FB0000037800F60FB2002AC9BF001E
:1023E0000000FB0080037800F70FB2002BC9BF008C
:1023F0000000FB0000047800F80FB2002CC9BF00F9
:102400000000FB0080047800F90FB2004A09F800D0
:10241000E5FF9F004A09F9004A09F800F6FF9F000E
:102420004A09F9004C09F800E7FF9F004C09F90040
:102430004C09F800F8FF9F004C09F9004E09F8001C
:10244000E9FF9F004E09F9008C0D0200000000001A
:10245000A4AA2A00F4498800220802000000000013
:102460002429EF00B4003700244980006320E100F4
:102470000E00350028C9BF000000FB008002780074
:10248000F50FB2004209F800E5FF9F004209F9008C
:10249000CC0D020000000000A4AA2A00F449880024
:1024A00022080200000000002429EF00A2003700EB
:1024B000244980006320E1000E00350028C9BF00D8
:1024C0000000FB0080027800F50FB2004209F8001E
:1024D000E5FF9F004209F900EC0D0200000000003A
:1024E000A4AA2A00F4498800220802000000000083
:1024F0002429EF0090003700244980006320E10088
:102500000E00350028C9BF000000FB0080027800E3
:10251000F50FB2004209F800E5FF9F004209F900FB
:102520000C0E020000000000A4AA2A00F449880052
:1025300022080200000000002429EF007E0037007E
:10254000244980006320E1000E00350028C9BF0047
:102550000000FB0080027800F50FB2004209F8008D
:10256000E5FF9F004209F9002C0E02000000000068
:10257000A4AA2A00F44988002208020000000000F2
:102580002429EF006C003700244980006320E1001B
:102590000E00350028C9BF000000FB008002780053
:1025A000F50FB2004209F800E5FF9F004209F9006B
:1025B0004C0E020000000000A4AA2A00F449880082
:1025C00022080200000000002429EF005A00370012
:1025D0003209F8003E09F9006C0E0200000000000C
:1025E000A4AA2A00F4498800220802000000000082
:1025F0002429EF0050003700A00E02000000000068
:10260000A4AA2A00F4498800220802000000000061
:102610002429EF0048003700FE0E020000000000F1
:10262000A4AA2A00F4498800220802000000000041
:102630002429EF004000370028C9BF000000FB003C
:1026400000027800F40FB200E44988003C89BF0022
:10265000A08AB200010032001300370026C9BF0073
:102660003EE9B700A60A02000000000027C9BF002B
:102670003EE9B700A60A02000000000028C9BF001A
:102680003EE9B700A60A020000000000A4AA2A0042
:10269000F449880022080200000000000000FE004B
:1026A0002429EF001300370027C9EE000160EF0076
:1026B00080427800F50FB2004209F800E5FF9F0064
:1026C0004209F900801F780028C9BF0043E9B7001C
:1026D0004F007800360F020000000000545525001E
:1026E000F449880022080200000000002429EF00BD
:1026F000000037002429EF000F00370027C9BF0072
:102700000000FB0080027800F50FB2004209F800DB
:10271000E5FF9F004209F900540F0200000000008D
:1027200054552500F44988002208020000000000EA
:102730002429EF00000037002669EF002769EF0029
:102740002869EF002429EF00010037002429EF0059
:102750002129A900244980006A20E1000B003400EF
:102760002429EF002669EF002769EF002869EF00B0
:102770002969EF002A69EF002B69EF002C69EF004F
:102780002D69EF002E69EF002F69EF002501200071
:1027900003000900CF127800CF0278000000060085
:1027A000851F7800861F78003889BF00B4498000F3
:1027B0000020E10017003400200020003409B4009C
:1027C00080027800E40F2000954A6200400020005B
:1027D0003409B40080027800C44980008402980063
:1027E000600020003409B40080027800B449800001
:1027F00084029800C00120003409B40080027800EF
:10280000154078000160EF0062007000804A780097
:10281000220037003689BF00C44980000020E10053
:1028200017003400200020003409B4008002780032
:1028300014002000954A7200400020003409B400C2
:1028400080027800B4498000840298006000200073
:102850003409B40080027800C449800084029800E2
:10286000C00120003409B4008002780015407800CF
:102870000160EF0064007000804A780007003700B4
:10288000C00120003409B4008002780015407800AF
:102890000160EF0061007000804A7800C0002000F5
:1028A0003409B40080027800600020003409B400CC
:1028B00010037800400020003409B40000027800C2
:1028C0001400780000005300700B020000000000AC
:1028D00004002000B41A7800B41A78003409F80013
:1028E0004609F900840C0200000000004F03780044
:1028F000CF0278000000060084852000A4498800EB
:102900000C08F8003609F9001408F8003809F90035
:10291000D01302000000000084882000A449880031
:102920001608F8003609F9000E08F8003809F90011
:10293000D013020000000000848B2000A44988000E
:102940001808F8003609F9001008F8003809F900ED
:10295000D013020000000000848E2000A4498800EB
:102960001208F8003609F9001A08F8003809F900C9
:10297000D01302000000000003A8AE002D003700B5
:1029800002C8BF003EE9B700A60A0200000000002E
:1029900030C1B3003EE9B700A60A02000000000003
:1029A0000C08F8003E09F9003E0D0200000000008E
:1029B0000E08F8003E09F9003E0D0200000000007C
:1029C0001008F8003E09F9003E0D0200000000006A
:1029D0001208F8003E09F9003E0D02000000000058
:1029E0001408F8003E09F9003E0D02000000000046
:1029F0001608F8003E09F9003E0D02000000000034
:102A00001808F8003E09F9003E0D02000000000021
:102A10001A08F8003E09F9003E0D0200000000000F
:102A20004CC8BF003EE9B700A60A02000000000043
:102A300003A8A90000000600851F7800C50020003B
:102A400004000900B51F78000002780081027800B8
:102A500083037800020378004200A9004220A90005
:102A60008180D2000180FD00F10FB2000100E00082
:102A70004B0032004200A9004220A9008381D2000D
:102A80000380FD00F30FB2000300E00044003200B9
:102A90000080FB0001C0410004003100F007B100DC
:102AA0003F0032003E003900020037001048B000FD
:102AB0003B00310007856A004200A9004220A900BE
:102AC000F50FB2000570A0004200A900F70FB20098
:102AD0000770A0000621B800062CB80083014C0046
:102AE000890078004200AF008100E8004200A900A0
:102AF000043CB80083014C0081804C00072CB800D6
:102B000081004C000000E8000100E0004220AF001E
:102B100001003700030037000300E0004220AF004F
:102B20000500370001F0A700030037008381D200C1
:102B30008180D2000000E900010178004200A90074
:102B40000370A6000900370007F02F00878161009D
:102B50000310B000600149000200E00003003A00E9
:102B60000300E00001003A000000E8000080FD00E2
:102B70004200A9004220A9008080D3000AF0A700EB
:102B800001F0A00002F0A1000280FD008140690078
:102B90000380FD0003417800020078000300370045
:102BA0000000200001002000000037004501200047
:102BB00004000900CF127800CF0278000000060060
:102BC0000001780081017800014078000080FD005C
:102BD00000F0A0008180D2000180FD008180FB0018
:102BE000E408200081405200060032000000E000AE
:102BF000040032004200A9000080D3008100E900F7
:102C0000FAFF3A0003F0A600020037000000EA00D5
:102C10000000370000000600000120004A09B4004F
:102C20000002780003002000B4197800B41978007D
:102C300000017800810178004E89BF00814A800040
:102C40001C1502000000000052A9B700A14A88002C
:102C50005289BF00A14A8000E01502000000000078
:102C600056A9B7005609F8000000F9000000060058
:102C7000851F7800861F78005629EF005049E20032
:102C80000A003200E00220004E09B4008002780001
:102C90005289BF00A14A8000E01502000000000038
:102CA00000037800950A43000A003700E002200084
:102CB0004E09B400800278005289BF00A14A80000A
:102CC000E015020000000000000378001502780003
:102CD000860A5200E00220004E09B40090027800FB
:102CE000A00220004E09B400000278001400780011
:102CF0000500E10006003D00E00220004E09B4009E
:102D000080027800A00220004E09B400900A7800EA
:102D1000E00220004E09B40090027800C0022000BA
:102D20004E09B40000027800140078000028E10089
:102D300006003D00E00220004E09B4008002780049
:102D4000C00220004E09B400900A7800E002200082
:102D50004E09B400900278006028E10016003D00A2
:102D6000E00220004E09B400000278001400780050
:102D7000700B020000000000800278000103780060
:102D80000500780086007800D2CC2C00C3DC2B0034
:102D90001C1502000000000058A9B700D14A8800A5
:102DA0005889BF00D14A8000E015020000000000F1
:102DB00056A9B70015003700E00220004E09B40004
:102DC0000002780014007800700B02000000000080
:102DD0008002780001037800050078008600780002
:102DE000D2CC2C00C3DC23001C1502000000000024
:102DF0005CA9B700F14A88005C89BF00F14A8000F5
:102E0000E01502000000000056A9B7005609F800BE
:102E10000000F9004F037800CF02780000000600A0
:102E2000851F78005829EF00E00120005209B40006
:102E300090027800D54A88005A29D5005A89BF00E7
:102E4000700B020000000000A24A8000B34A80001C
:102E5000080B020000000000020039005A09F800C7
:102E60005809F9005809F8000000F900CF0278006D
:102E700000000600851F7800861F7800871F7800F5
:102E8000881F7800A00020003609B4008002780076
:102E9000E0FF2F003A09B600800A78003809F800F0
:102EA0003C09F900E0FF2F003C29B6008002200019
:102EB0003609B400104278000400A60090013700E3
:102EC000C00120003609B400904278008502FB0062
:102ED000E2826200C00120003609B400904378000D
:102EE0008703FB0064806300008072000000E00044
:102EF000830132003E29EF004029EF004229EF0014
:102F0000A00020003609B400000278001400780008
:102F1000E44980000020E100AA003400A000200065
:102F20003609B4000002780014007800E4498000FB
:102F300000005200700B02000000000040A9B70022
:102F4000114A88003609F8004A09F9003C09F800DE
:102F50004C09F9004009F8004E09F9004209F8004F
:102F60005009F9000C1602000000000080027800F1
:102F700010C0B30050E9B7003609F8004E09F90057
:102F80004009F8005209F9004209F8005409F90013
:102F90003816020000000000850240003C89BF0096
:102FA000700B0200000000000003BE003609F800AC
:102FB0005209F900A64A8800B74A88001017020093
:102FC00000000000008052003EA9B7002000200051
:102FD0003609B400104278000400A6002A00370029
:102FE0003689BF009002780005007800F00FB2002B
:102FF0003080B200070032007080B2000C00320056
:103000001080B200110032003080B2001600320091
:103010001C003700A4862100F3498000848241000F
:103020003E09F8008E01F900650C88001500370094
:10303000A4862100F3498000848241003E09F80003
:103040009401F900950C88000E003700A486210039
:10305000F3498000848241003E09F8009A01F9009A
:10306000C50C880007003700A4862100F3498000C2
:10307000848241003E09F800A001F900F50C8800A7
:103080000000370049003700F4498000430D230059
:103090000418E10004003D00F4498000430D2300C2
:1030A000030052003EA9B7003689BF0090027800A5
:1030B00005007800F00FB2003080B2000700320047
:1030C0007080B200120032001080B2001D00320089
:1030D0003080B2002800320034003700440D230055
:1030E000F349800083025200440D2300F34980001D
:1030F00003005200440D230000005200A48621006A
:1031000000035200750C8800660C88002700370009
:10311000440D2300F349800083025200440D230034
:10312000F349800003005200440D230000005200C8
:10313000A486210000035200A50C8800960C88008C
:103140001A003700440D2300F34980008302520027
:10315000440D2300F349800003005200440D230076
:1031600000005200A486210000035200D50C880004
:10317000C60C88000D003700440D2300F349800081
:1031800083025200440D2300F349800003005200E3
:10319000440D230000005200A486210000035200C9
:1031A000050D8800F60C8800000037008000200024
:1031B0003609B40080027800E44980008402980057
:1031C000CF003700A00020003609B40000027800CC
:1031D00014007800E44980000020E100A6003D00D2
:1031E000A00020003609B40090027800E449800075
:1031F00004805200700B02000000000040A9B700DC
:10320000114A88003609F8004A09F9003C09F8001B
:103210004C09F9004009F8004E09F9004209F8008C
:103220005009F9000C16020000000000800278002E
:103230005069EF003609F8004E09F9004009F8001E
:103240005209F9004209F8005409F9003816020041
:1032500000000000850240003609F8005209F9001C
:103260004009F8005409F9004209F8005609F9002C
:103270001017020000000000008052003EA9B700B5
:10328000200020003609B400104278000400A60097
:103290004A003700F4498000430D23000418E10080
:1032A00004003D00F4498000430D23000300520058
:1032B0003EA9B7003689BF0090027800050078006B
:1032C000F00FB2003080B200070032007080B20010
:1032D000120032001080B2001D0032003080B200B7
:1032E0002800320034003700440D2300F3498000E9
:1032F00083025200440D2300F34980000300520072
:10330000440D230000005200A48621000003520057
:10331000750C8800660C880027003700440D2300D8
:10332000F349800083025200440D2300F3498000DA
:1033300003005200440D230000005200A486210027
:1033400000035200A50C8800960C88001A00370074
:10335000440D2300F349800083025200440D2300F2
:10336000F349800003005200440D23000000520086
:10337000A486210000035200D50C8800C60C8800EA
:103380000D003700440D2300F349800083025200F2
:10339000440D2300F349800003005200440D230034
:1033A00000005200A486210000035200050D880091
:1033B000F60C880000003700290037003689BF006E
:1033C0009002780005007800F00FB2003080B20063
:1033D000070032007080B2000C0032001080B20092
:1033E000110032003080B200160032001C0037009D
:1033F000A4862100F3498000848241003E09F80040
:103400008E01F900650C880015003700A4862100A4
:10341000F3498000848241003E09F8009401F900DC
:10342000950C88000E003700A4862100F349800027
:10343000848241003E09F8009A01F900C50C880019
:1034400007003700A4862100F349800084824100F0
:103450003E09F800A001F900F50C880000003700D3
:10346000800020003609B40080027800E449800022
:1034700084029800220037003689BF00900278004D
:1034800005007800F00FB2003080B2000700320073
:103490007080B200090032001080B2000B003200D0
:1034A0003080B2000D003200100037008E21EF0096
:1034B000A4862100640C88000C0037009421EF00E2
:1034C000A4862100940C8800080037009A21EF00A0
:1034D000A4862100C40C880004003700A021EF005E
:1034E000A4862100F40C8800000037008000200032
:1034F0003609B40080027800E44980008402980014
:103500004F047800CF0378004F037800CF02780093
:103510000000060003C8AE0035003700340020006C
:10352000A4498800A44980006720E10030003D00E4
:103530003489BF003080B200070032007080B200D2
:103540000E0032001080B200150032003080B20050
:103550001C0032002400370084852000B449880014
:103560000408F8003809F9001809F8003A09F900C8
:103570003A170200000000001B003700848820007A
:10358000B44988000608F8003809F9001A09F8005B
:103590003A09F9003A170200000000001200370053
:1035A000848B2000B44988000808F8003809F90025
:1035B0001C09F8003A09F9003A170200000000005F
:1035C00009003700848E2000B44988000A08F800FA
:1035D0003809F9001E09F8003A09F9003A17020003
:1035E00000000000000037003429EC00CDFF370058
:1035F000000006000F782200F07F220020A0B70014
:10360000000000004044240040058800404424009D
:103610008005880081E0A80000802000E1FF2000F4
:10362000018009000018EB00DEC2A900E2C2A90077
:103630000028EF0004002800041188000440200046
:103640001411880054012000441188000268EF0022
:103650000308A9000328A9000348A9000368A900DA
:103660000388A9000428EF000628EF000828EF00CF
:103670000A28EF000C28EF000E28EF001028EF00BA
:103680001228EF001428EF001628EF001828EF008A
:103690001A28EF003C28EF003E28EF004028EF00FA
:1036A0004228EF004428EF004628EF004828EF00AA
:1036B0004A28EF004C68EF004E28EF005028EF003A
:1036C0005228EF0003A8A90003C8A9005428EF005E
:1036D0005628EF0003E8A9001829EF001A29EF0087
:1036E0001C29EF001E29EF004D68EF002069EF0054
:1036F0002229EF002109A9002429EF002129A9008E
:10370000F4022000844988002149A9003229EF00F1
:103710002CA3EF002AA3EF001C28EF001E28EF00C7
:103720002028EF002228EF002428EF002628EF00B1
:103730002828EF002A28EF002C28EF002E28EF0081
:103740003028EF003228EF003428EF003628EF0051
:103750003828EF003A28EF002629EF002829EF004B
:103760002A29EF002C29EF002E29EF007A0702000A
:10377000000000009C0702000000000050C8B300D9
:1037800002E8B700B407020000000000FA070200D8
:103790000000000032A9B700440802000000000049
:1037A0009808020000000000D2090200000000009A
:1037B00081E0A9004220EF0081E0A80010C0B30022
:1037C00042E9B700E408020000000000840A020099
:1037D00000000000940A0200000000000004E00065
:1037E000030032004269EF00E4080200000000001C
:1037F0004C020200000000006A0F020000000000FE
:103800007C140200000000008A1A02000000000080
:08381000F0FF37000040FE004C
:020000040001F9
:0457FC00176C000026
:0200000401F009
:10000000CF0000FFCF0000FF070000FF830000FFCC
:10001000C60000FF5F0000FFE60000FFC30000FF16
:00000001FF
;PIC24HJ64GP206
;CRC=D8CF  CREATED="18-апр-16 11:01"
