:0800000044220400000000008E
:04001C004A03000093
:04003800240300009D
:04005400BC020000EA
:0400880076020000FC
:08009400FC0200000002000064
:0400E8008E06000080
:100400004200F8003600F8003200F800801F780043
:10041000200020000C000900B01F78000308AE0087
:1004200007003700E502A900E902A800E422A900BC
:10043000E822A9000308A9000348A8000500370026
:10044000E502A900E902A900E422A900E822A80027
:100450000348A9000328AE0007003700E4E2A90022
:10046000E8E2A900E402A900E802A8000328A90024
:100470000368A80005003700E4E2A900E8E2A8004C
:10048000E402A900E802A9000368A9008780A90086
:100490001821EF008780A900A00120000C000900AE
:1004A0004F1078004F0078003200F9003600F90054
:1004B0004200F900004006000000810000027800C0
:1004C0002440880010008100000278003440880039
:1004D0002000810000027800444088003000810044
:1004E0000002780054408800000006004200F80036
:1004F0003600F8003200F800801F7800200020004D
:100500000C000900B01F78005C020200000000002F
:100510008700A900A00120000C0009004F107800FE
:100520004F0078003200F9003600F9004200F9006F
:10053000004006002202AE00FEFF37002202F80053
:100540000008F900301180002222A90000000600F6
:100550001E21EF008760A9001421EF001E21EF008B
:100560003C09F8001A01F90004032800F408880087
:100570009760A800000006004200F8003600F8006E
:100580003200F800801F7800200020000C000900D5
:10059000B01F78002492200003498000848241002B
:1005A0009A02020000000000804A78002029EC0036
:1005B000044980007620E100010034002029EF008A
:1005C000030009002682BF008560A900A80202007E
:1005D000000000008560A900A00120000C000900B7
:1005E0004F1078004F0078003200F9003600F90013
:1005F0004200F900004006004200F8003600F80012
:100600003200F800801F7800200020000C00090054
:10061000B01F78001E21EF008760A9003A09A800EA
:100620001421EF008760A900A00120000C00090040
:100630004F1078004F0078003200F9003600F900C2
:100640004200F900004006004200F8003600F800C1
:100650003200F800801F7800200020000C00090004
:10066000B01F78003A29A900DEC2A900E2C2A900A1
:100670008480A900A00120000C0009004F10780020
:100680004F0078003200F9003600F9004200F9000E
:10069000004006004200F8003600F8003200F80082
:1006A000801F7800200020000C000900B01F780097
:1006B00080A0A900A00120000C0009004F107800C4
:1006C0004F0078003200F9003600F9004200F900CE
:1006D000004006000C28EF000E28EF001028EF0065
:1006E0001228EF001428EF001628EF001828EF005A
:1006F0001A28EF00C1812000020020000700090035
:100700008058EB0041822000020020000700090011
:100710008058EB00C1822000020020000700090081
:100720008058EB00418320000200200007000900F0
:100730008058EB004E28EF005028EF005228EF00C1
:1007400003A8A90003C8A900000006005428EF0070
:100750005628EF0003A8A90000000600BCC9BF008E
:100760000000FB003080B200070032007080B20051
:10077000110032001080B2001B0032003080B20045
:100780002500320030003700BD49E200050032008C
:10079000A40F2000740C880044962100640C88008B
:1007A00004003700A4FD2200740C880004772100A7
:1007B000640C880024003700BD49E20005003200C7
:1007C000A40F2000A40C880044962100940C8800FB
:1007D00004003700A4FD2200A40C88000477210047
:1007E000940C880018003700BD49E2000500320073
:1007F000A40F2000D40C880044962100C40C88006B
:1008000004003700A4FD2200D40C880004772100E6
:10081000C40C88000C003700BD49E200050032001E
:10082000A40F2000040D880044962100F40C8800D9
:1008300004003700A4FD2200040D88000477210085
:10084000F40C88000000370000000600BA49E200FE
:100850001900320030C0B300BCE9B70010C0B300CB
:10086000BDE9B700AE0302000000000040C0B300C5
:10087000BCE9B70010C0B300BDE9B700AE03020089
:100880000000000050C0B300BCE9B70010C0B300C6
:10089000BDE9B700AE0302000000000060C0B30075
:1008A000BCE9B70010C0B300BDE9B700AE03020059
:1008B000000000001400370030C0B300BCE9B700EE
:1008C000BD69EF00AE0302000000000040C0B300AD
:1008D000BCE9B700BD69EF00AE03020000000000F4
:1008E00050C0B300BCE9B700BD69EF00AE03020021
:1008F0000000000060C0B300BCE9B700BD69EF00B4
:10090000AE0302000000000000000600851F780012
:10091000861F780000FF2F00BC09B6008002780017
:1009200000FF2F00BE09B6000028E10002003200DF
:100930000040EB000100370010C0B3008042780097
:1009400000FF2F00C009B6000003780000FF2F0051
:10095000C209B6000030E100020032000040EB00A6
:100960000100370010C0B30080C2620000FF2F00FA
:10097000BC09B6000003780000FF2F00C009B600D4
:100980000030E100020032000040EB0001003700BF
:1009900010C0B30000C062000004E0000400320098
:1009A00010C0B30000E0B7000300370002003700BA
:1009B0000060EF00000037004F037800CF0278009E
:1009C00000000600851F7800861F7800871F7800CA
:1009D000881F7800BA09A900B44280006220B800DC
:1009E000C4812000840240002440800084029800DA
:1009F000B44280006220B80044822000840240009B
:100A00003440800084029800B44280006220B80024
:100A1000C482200084024000444080008402980088
:100A2000B44280006220B800448320008402400069
:100A300054408000840298005628EC00B4428000A4
:100A40006420E100010035005628EF001C08F80082
:100A5000BC09F9001E08F800BE09F9002008F800DA
:100A6000C009F9002208F800C209F9008604020052
:100A700000000000BA29A9000000AF00BA29A800B0
:100A80002408F800BC09F9002608F800BE09F9009E
:100A90002808F800C009F9002A08F800C209F9007E
:100AA0008604020000000000BA49A9000000AF005F
:100AB000BA49A8002C08F800BC09F9002E08F80073
:100AC000BE09F9003008F800C009F9003208F80042
:100AD000C209F9008604020000000000BA69A900FA
:100AE0000000AF00BA69A8003408F800BC09F9009A
:100AF0003608F800BE09F9003808F800C009F90006
:100B00003A08F800C209F90086040200000000005B
:100B1000BA89A9000000AF00BA89A8000000EB0064
:100B2000BA29AF000000E800004378000000EB00A5
:100B3000BA49AF000000E800804263000000EB000B
:100B4000BA69AF000000E800004478000000EB0044
:100B5000BA89AF000000E8000040640000C06200F5
:100B60000004E00001003200BA09A8000000EB0018
:100B7000BA09AF000000E8004F047800CF03780006
:100B80004F037800CF027800000006000408F80048
:100B90003C08F9000608F8004008F9000808F800C9
:100BA0004408F9000A08F8004808F90000000600A7
:100BB0000408F8003E08F9000608F8004208F900A9
:100BC0000808F8004608F9000A08F8004A08F90081
:100BD000000006003E88BF00E44180000020E100E4
:100BE000050035003C08F8001408F9003E08F8003C
:100BF0000C08F900040037003E08F8001408F9005A
:100C00003C08F8000C08F9004288BF00044280004C
:100C10000020E100050035004008F8001608F90042
:100C20004208F8000E08F900040037004208F800F6
:100C30001608F9004008F8000E08F9004688BF00C1
:100C4000244280000020E100050035004408F8003F
:100C50001808F9004608F8001008F90004003700E9
:100C60004608F8001808F9004408F8001008F900D0
:100C70004A88BF00444280000020E10005003500A2
:100C80004808F8001A08F9004A08F8001208F900A4
:100C9000040037004A08F8001A08F9004808F8006C
:100CA0001208F900000006009A00A9002621EF00B2
:100CB00003C8A8001408F8001809F90000FC2F0068
:100CC0001829B6001608F8001A09F90000FC2F00D0
:100CD0001A29B6001808F8001C09F90000FC2F00BA
:100CE0001C29B6001A08F8001E09F90000FC2F00A4
:100CF0001E29B6000000060003A8A8000000060098
:100D000003E8A800000006004E08F8005008F900AB
:100D10005208F8004E08F900000006004200F800F2
:100D20003600F8003200F800801F78002000200014
:100D30000C000900B01F78005428EC00A442800089
:100D4000830C20000418E10004003C0000C1B30043
:100D50004CE8B70004202000944288004E88BF0071
:100D60000080B200150032001080B200180032007E
:100D70003080B2001B0032006080B20020003200E0
:100D8000C080B200280032008081B2002B00320007
:100D90000083B2002E0032000086B2003200320022
:100DA000008CB2003A0032000098B2003D003200E0
:100DB00000B0B20040003200440037006A03020075
:100DC0000000000014002000944288004400370016
:100DD000A6030200000000002400200094428800C6
:100DE0003F00370010C0B300BAE9B7002604020084
:100DF00000000000440020009442880038003700C2
:100E0000E2040200000000000004E00003003200E1
:100E10008400200094428800020037004400200033
:100E2000944288002E003700C60502000000000032
:100E3000040120009442880029003700A603020024
:100E400000000000040220009442880024003700C3
:100E5000BA69EF002604020000000000040420002C
:100E6000944288001E003700E204020000000000E7
:100E70000004E000030032000408200094428800CF
:100E80000200370004042000944288001400370058
:100E9000D8050200000000000410200094428800E1
:100EA0000F003700EA0502000000000004202000C7
:100EB000944288000A003700540602000000000037
:100EC0007C06020000000000050037005406020006
:100ED000000000007C060200000000000000370057
:100EE00080060200000000008406020000000000EE
:100EF0008A00A900A00120000C0009004F10780012
:100F00004F0078003200F9003600F9004200F90085
:100F1000004006004407A9004427A8004447A90050
:100F20004467A9004487A90044C7A90044E7A90071
:100F30004607A9004627A8004647A8004667A9001B
:100F40004687A90046A7A80046C7A90046E7A9000A
:100F50004707A900000006009560A80000000600F1
:100F60008100220002002000170009008058EB00D9
:100F70003A29A90002C8BF000820F800E0FF9F003E
:100F80000820F90000000600B00702000000000081
:100F90009480A80000C6B30081E3B700C0C0B300CE
:100FA00082E3B70044222000441C8800DEC2A9006E
:100FB000E2C2A90000000600910188000300E000E1
:100FC000130032000000AF00060037003059BA00AD
:100FD0008301E9000E0032001059BA008301E900D4
:100FE0000B0032000000E90030D9BA008301E900AB
:100FF000070032000059EB008301E9000000E8001F
:101000000000E0004220AF003220EC00EBFF370090
:1010100000000600851F78004029EF004229EF00FC
:10102000E4BF2A00244A88004629EF004489BF0013
:10103000314A80002294200023002000DC070200B7
:101040000000000042C9BF0040E9B70043C9BF002B
:1010500041E9B7004009F8000000F900CF0278002C
:10106000000006007E89BF00545525000400E10001
:1010700004003200A4AA2A000400E10005003200A6
:10108000080037000348AF00010037000308A8003C
:10109000040037000368AF00010037000328A800F0
:1010A00000003700000006002021EF0094D023004C
:1010B000E408880004032800040988001821EF00D0
:1010C0009780A800A4AA2A00F44B880032080200E6
:1010D0000000000054552500F44B8800320802003F
:1010E00000000000000006000100220002002000B5
:1010F000070009008058EB00000006007408020099
:10110000000000009963EF00D0C0B3009AE3B7007D
:1011100004302000041D880099E3A9009863EF00C3
:1011200004002200E41C880099C3AE0003003700CD
:1011300074002000141D88000200370034002000D5
:10114000141D880099E3A8009700A800000006007D
:1011500021E3A9002143A80023A3A90023C3A900D8
:1011600023E3A90064602000241988002A03A80052
:101170002A23A80034FF2900641988006400200095
:10118000441988002303A9002323A9002063A90090
:101190002E03A9002E23A900C4002600841988006C
:1011A0002043A80020A3A80020C3A80020E3A80093
:1011B0002103A9002123A9002243A8002263A8003B
:1011C0002283A90022A3A9003223EF007E08020097
:1011D000000000002183A9002343A8002223A900C6
:1011E00021E3A80000000600851F7800C001200050
:1011F0008209B4008002780084C9BF000000FB00AF
:10120000F00FB2000080EA00000078000080FD00CE
:10121000554060000080FD0045406000804A780035
:10122000CF02780000000600851F7800C001200072
:101230008209B4008002780084C9BF000000FB006E
:10124000F00FB200000078000080FD0055407000F3
:101250000080FD0045407000804A7800CF02780091
:10126000000006008049E2001B003A00E5E2A90008
:10127000E9E2A90000C2B30084E9B7008485200038
:10128000144C8800F40802000000000000C2B30003
:1012900084E9B70084882000144C8800F408020018
:1012A0000000000000C2B30084E9B700848B200076
:1012B000144C8800F40802000000000000C2B300D3
:1012C00084E9B700848E2000144C8800F4080200E2
:1012D0000000000032003700E5E2A900E9E2A800C2
:1012E00000C2B30084E9B70084852000144C880054
:1012F000140902000000000000C2B30084E9B70036
:1013000084882000144C88001409020000000000AA
:1013100000C2B30084E9B700848B2000144C88001D
:10132000140902000000000000C2B30084E9B70005
:10133000848E2000144C8800140902000000000074
:1013400000C1B30084E9B70084852000144C8800F4
:10135000F40802000000000000C1B30084E9B700F7
:1013600084882000144C8800F4080200000000006B
:1013700000C1B30084E9B700848B2000144C8800BE
:10138000F40802000000000000C1B30084E9B700C7
:10139000848E2000144C8800F40802000000000035
:1013A00000000600851F7800861F7800054A80002F
:1013B000144A800084029800200020004009B400F4
:1013C00080027800E40F2000954A6200E0012000CE
:1013D0004009B4008002780040C6B300804A78001B
:1013E00000C0B30090429800000220004009B40001
:1013F0008002780050C3B300804A7800C0C0B300B8
:1014000090429800800220004009B40080027800D9
:1014100014002000954A7200C00120004009B40069
:1014200080027800804AEB00800020004009B40070
:1014300080027800804AEB0000C0B3009042980020
:10144000A00020004009B40080027800804AEB0030
:1014500000C0B30090429800000120004009B40091
:1014600080027800804AEB0000C0B30090429800F0
:1014700000C0B300A042980000C0B300B042980082
:10148000400120004009B40080027800804AEB004F
:1014900000C0B3009042980000C0B300A042980082
:1014A00000C0B300B0429800400220004009B400E0
:1014B00080027800804AEB0000C0B30090429800A0
:1014C000200220004009B4008002780050C3B3001D
:1014D000804A7800C0C0B3009042980060022000AB
:1014E0004009B40080027800804AEB0000C0B300DD
:1014F00090429800E00220004009B4008002780089
:10150000804AEB0000C0B30090429800A002200087
:101510004009B40080027800E00120004009B400D6
:10152000100378004330DD00800A7800C0022000FC
:101530004009B40080027800E00120004009B400B6
:10154000100378004333DD00F4FF2F0004B0B8002F
:10155000800A78004F037800CF0278000000060070
:101560008069EF0032090200000000001221EF0044
:10157000440D2300740888000401280094088800A2
:10158000D4002000240C8800D4002000540C8800D3
:10159000D4002000840C8800D4002000B40C880003
:1015A000D4002000E40C8800D4002000140D880032
:1015B0008221EF00A4862100040C8800A48621006B
:1015C000440C88008621EF008E21EF00A4862100C4
:1015D000640C88009421EF00A4862100940C8800FC
:1015E0009A21EF00A4862100C40C8800A021EF00FE
:1015F000A4862100F40C880084852000044A880019
:1016000034002000144A8800440D2300244A880036
:101610004629EF004829EF00D2090200000000002F
:1016200084882000044A880044002000144A88006E
:10163000440D2300244A88004629EF004829EF0082
:10164000D209020000000000848B2000044A8800B8
:1016500054002000144A8800440D2300244A8800C6
:101660004629EF004829EF00D209020000000000DF
:10167000848E2000044A880064002000144A8800F8
:10168000440D2300244A88004629EF004829EF0032
:10169000D209020000000000000006009A00A90024
:1016A0002E21EF0024A127005409880004032800FC
:1016B000740988002621EF009A00A80000000600A7
:1016C0005406020000000000F0CCB30084E9B7002B
:1016D00084852000144C8800F408020000000000FB
:1016E000F0CCB30084E9B70084882000144C880053
:1016F000F408020000000000F0CCB30084E9B70059
:10170000848B2000144C8800F408020000000000C4
:10171000F0CCB30084E9B700848E2000144C88001C
:10172000F4080200000000006A030200000000004C
:101730004E0B02000000000003C8A9004C68EF0037
:10174000000006004009A900D302A800D502AF009E
:10175000010037004009A8000000EB004009AF007D
:101760000000E80000000600C00120007E09B4006F
:10177000044C800000429000044C880080C9BF00E7
:1017800000E0B700000006003A29A800DEC2A90068
:10179000E2C2A80081E3A90010C0B30080E3B70053
:1017A00084002200241C8800A209F8008A03F900A2
:1017B00081E3A80083E3A80000000600B007020050
:1017C00000000000400081000080FD0020C4B30044
:1017D0000080FD00400089007EC9BF000A20F8009B
:1017E000E0FF9F000A20F9007FC9BF000A20F8002F
:1017F000F0FF9F000A20F90080C9BF000C20F8000C
:10180000E0FF9F000C20F90081C9BF000C20F80008
:10181000F0FF9F000C20F90074002000144D880098
:10182000C40B02000000000000000600851F7800C5
:10183000E00120008009B40080027800951F780044
:101840000000F900CF02780000000600851F780034
:10185000000220008009B40080027800951F780003
:101860000000F900CF02780000000600B007020077
:1018700000000000400081000080FD0030C4B30083
:101880000080FD004000890084852000044C880011
:10189000160C0200000000007EA9B7007FC9BF003F
:1018A0000A20F800E0FF9F000A20F9007E89BF00AF
:1018B000F00FB2000A20F800F0FF9F000A20F900A4
:1018C00084882000044C8800160C020000000000F0
:1018D0007EA9B7007FC9BF000C20F800E0FF9F0081
:1018E0000C20F9007E89BF00F00FB2000C20F80038
:1018F000F0FF9F000C20F900848B2000044C88002E
:10190000160C0200000000007EA9B7007FC9BF00CE
:101910000E20F800E0FF9F000E20F9007E89BF0036
:10192000F00FB2000E20F800F0FF9F000E20F9002B
:10193000848E2000044C8800160C02000000000079
:101940007EA9B7007FC9BF001020F800E0FF9F000C
:101950001020F9007E89BF00F00FB2001020F800BF
:10196000F0FF9F001020F90084852000044C8800BF
:10197000260C0200000000007EA9B7007FC9BF004E
:101980001220F800E0FF9F001220F9007E89BF00BE
:10199000F00FB2001220F800F0FF9F001220F900B3
:1019A00084882000044C8800260C020000000000FF
:1019B0007EA9B7007FC9BF001420F800E0FF9F0098
:1019C0001420F9007E89BF00F00FB2001420F80047
:1019D000F0FF9F001420F900848B2000044C880045
:1019E000260C0200000000007EA9B7007FC9BF00DE
:1019F0001620F800E0FF9F001620F9007E89BF0046
:101A0000F00FB2001620F800F0FF9F001620F9003A
:101A1000848E2000044C8800260C02000000000088
:101A20007EA9B7007FC9BF001820F800E0FF9F0023
:101A30001820F9007E89BF00F00FB2001820F800CE
:101A4000F0FF9F001820F90034012000144D880099
:101A5000C40B02000000000000000600851F780093
:101A6000861F7800E10820000600A10000F0A60013
:101A7000030037000600A0000000EA000000370065
:101A80000000E0001400320000F0A700040037005E
:101A90004200A9000080D2008100E900FAFF37006F
:101AA0000180FD004200A9008180D30000F0A10068
:101AB0000080FD00814068000040B2000600A700E1
:101AC00001F0A00007003700014078000170A0007D
:101AD0000140B200030037000000EB008000EB0083
:101AE000000037004F037800CF02780000000600A6
:101AF000851F7800861F7800E00120007E09B40071
:101B000080027800044C800084029800A00220002B
:101B10007E09B40080027800E00120007E09B40054
:101B2000100378004330DD00800A7800C0022000F6
:101B30007E09B40080027800E00120007E09B40034
:101B4000100378004333DD00F4FF2F0004B0B80029
:101B5000800A7800800120007E09B40080027800AD
:101B6000E00120007E09B400000278001400780033
:101B70002E0D02000000000004002000B41A7800BE
:101B8000B41A78004F037800CF02780000000600F6
:101B9000851F7800861F7800871F78000382680001
:101BA00004F0A600060037004200A9004220A90068
:101BB00001F0A600260037004200A80024003700EC
:101BC0000102780080027800030378008203780025
:101BD0008180D2000180FD008381D2000380FD005E
:101BE00081C051000500320004F0A6001800370043
:101BF0001000200042E0B600150037008440780055
:101C0000864178000170A1000370A10081C05100DD
:101C10000500320004F0A6000D003700100020007F
:101C200042E0B6000A00370085805300050032000C
:101C300004F0A600060037001000200042E0B600C5
:101C4000030037004200A900010037000000370000
:101C5000CF0378004F037800CF0278000000060021
:101C6000851F7800C500200004000900B51F78001A
:101C70008004EB0083846800010378008002780010
:101C800003047800820378008180D2000180FD0087
:101C90008180FB000100E0004E0032008381D20011
:101CA0000380FD008381FB000300E0004900320057
:101CB0000000EB0003C0500003003900F047B00003
:101CC00044003100030037001048B10041003900E2
:101CD0004000320085007800060178000270A00004
:101CE000F20FB200F80FB2000870A0009A012000B5
:101CF0008001EB000002EB008780500008015900D2
:101D0000020033000400310004003A0087804000E4
:101D100008014900010037000400A0000A05E9009D
:101D2000070032004200A9008180D2000281D20067
:101D30004200A9000482D2008381D200EEFF370066
:101D40000005EB000380A700010037000600370004
:101D50004200A9008381D3000370A1000482D30054
:101D60000A85D200020037000000E90019003200A5
:101D70000AF0A700050039008180D2000281D2005C
:101D80008780500008015900090039000402E8006A
:101D900007003A008301E80005003A000000E8006F
:101DA0000C003200020037000000E9000900320098
:101DB0000080FD008080D30001F0A00009F0A600A3
:101DC00001F0A1000370A10081C069000400780047
:101DD0000300370000002000010020000000370051
:101DE0004501200004000900CF127800CF027800DE
:101DF00000000600851F7800861F7800871F780086
:101E0000881F7800C00020008609B400A4002000CC
:101E1000301A7800301A78000000200001002000FD
:101E20000501780086017800C80D0200000000005E
:101E300016003900000120008609B40080027800F5
:101E4000000220008609B40010037800C0002000C2
:101E50008609B400E4002000301A7800301A7800B7
:101E6000060078002E0D0200000000000701780037
:101E700088017800300E02000000000004002000FD
:101E8000B41A7800B41A78000E003700C0012000A0
:101E90008609B40080027800804AEB00000120002F
:101EA0008609B40080027800804AEB0000C0B300CD
:101EB0009042980000C8B300A0429800F0C3B3005D
:101EC000B0429800800120008609B40080027800AA
:101ED000E00120008609B4000002780014007800B8
:101EE0002E0D02000000000004002000B41A78004B
:101EF000B41A78004F047800CF0378004F037800BD
:101F0000CF02780000000600851F7800044C800096
:101F100053C320000418E10008003D000002200027
:101F20007E09B4008002780050C3B300804A780074
:101F3000C0C0B300904298000500370000022000A6
:101F40007E09B40080027800044C8000840298006E
:101F50007E09F8008609F900FA0E02000000000070
:101F6000CF02780000000600B00702000000000069
:101F7000400081000080FD0030C3B3000080FD0000
:101F8000400089007EC9BF000A20F800E0FF9F00E2
:101F90000A20F90081C9BF000A20F800F0FF9F0065
:101FA0000A20F9008089BF00F00FB2000C20F80071
:101FB000E0FF9F000C20F90083C9BF000C20F8004F
:101FC000F0FF9F000C20F9008289BF00F00FB200E3
:101FD0000E20F800E0FF9F000E20F9008400200092
:101FE000144D8800C40B0200000000000000060031
:101FF000B007020000000000400081000080FD00EA
:1020000030C3B3000080FD00400089007EC9BF00DE
:102010000A20F800E0FF9F000A20F90081C9BF00F4
:102020000A20F800F0FF9F000A20F9008089BF0015
:10203000F00FB2000C20F800E0FF9F000C20F90028
:1020400083C9BF000C20F800F0FF9F000C20F900AE
:102050008289BF00F00FB2000E20F800E0FF9F0061
:102060000E20F90085C9BF000E20F800F0FF9F0088
:102070000E20F9008489BF00F00FB2001020F80094
:10208000E0FF9F001020F90087C9BF001020F80072
:10209000F0FF9F001020F9008689BF00F00FB2000A
:1020A0001220F800E0FF9F001220F90089C9BF004C
:1020B0001220F800F0FF9F001220F9008889BF006D
:1020C000F00FB2001420F800E0FF9F001420F90088
:1020D0008BC9BF001420F800F0FF9F001420F90006
:1020E0008A89BF00F00FB2001620F800E0FF9F00C1
:1020F0001620F9008DC9BF001620F800F0FF9F00E0
:102100001620F9008C89BF00F00FB2001820F800EB
:10211000E0FF9F001820F9008FC9BF001820F800C9
:10212000F0FF9F001820F9008E89BF00F00FB20069
:102130001A20F800E0FF9F001A20F9004401200057
:10214000144D8800C40B02000000000000000600CF
:10215000B007020000000000400081000080FD0088
:1021600010C3B3000080FD00400089007EC9EE006E
:102170000A20F800E0FF9F000A20F9004400200038
:10218000144D8800C40B020000000000000006008F
:10219000B007020000000000400081000080FD0048
:1021A00010C4B3000080FD00400089007FC9BF005B
:1021B0000A20F800E0FF9F000A20F9007E89BF0096
:1021C000F00FB2000A20F800F0FF9F000A20F9008B
:1021D00081C9BF000C20F800E0FF9F000C20F9002F
:1021E0008089BF00F00FB2000C20F800F0FF9F00C4
:1021F0000C20F90083C9BF000E20F800E0FF9F000B
:102200000E20F9008289BF00F00FB2000E20F80006
:10221000F0FF9F000E20F90085C9BF001020F800D4
:10222000E0FF9F001020F9008489BF00F00FB2008A
:102230001020F800F0FF9F001020F90087C9BF00B0
:102240001220F800E0FF9F001220F9008689BF00ED
:10225000F00FB2001220F800F0FF9F001220F900EA
:1022600089C9BF001420F800E0FF9F001420F90086
:102270008889BF00F00FB2001420F800F0FF9F0023
:102280001420F9008BC9BF001620F800E0FF9F0062
:102290001620F9008A89BF00F00FB2001620F8005E
:1022A000F0FF9F001620F9008DC9BF001820F8002C
:1022B000E0FF9F001820F9008C89BF00F00FB200EA
:1022C0001820F800F0FF9F001820F90034012000CA
:1022D000144D8800C40B020000000000000006003E
:1022E000B007020000000000400081000080FD00F7
:1022F00020C3B3000080FD004000890034002000AE
:10230000144D8800C40B020000000000000006000D
:10231000B007020000000000400081000080FD00C6
:1023200050C3B3000080FD00400089007EC9BF009B
:102330000A20F800E0FF9F000A20F9004400200076
:10234000144D8800C40B02000000000000000600CD
:10235000B007020000000000400081000080FD0086
:1023600000C4B3000080FD00400089007FC9BF00A9
:102370000A20F800E0FF9F000A20F9007E89BF00D4
:10238000F00FB2000A20F800F0FF9F000A20F900C9
:1023900081C9BF000C20F800E0FF9F000C20F9006D
:1023A0008089BF00F00FB2000C20F800F0FF9F0002
:1023B0000C20F90083C9BF000E20F800E0FF9F0049
:1023C0000E20F9008289BF00F00FB2000E20F80045
:1023D000F0FF9F000E20F90085C9BF001020F80013
:1023E000E0FF9F001020F9008489BF00F00FB200C9
:1023F0001020F800F0FF9F001020F900B40020002A
:10240000144D8800C40B020000000000000006000C
:102410009009F8001809F90000000600B007020052
:1024200000000000400081000080FD0010C3B300E8
:102430000080FD00400089007EC9BF000A20F8002E
:10244000E0FF9F000A20F90081C9BF000A20F800C0
:10245000F0FF9F000A20F9008089BF00F00FB20052
:102460000C20F800E0FF9F000C20F9006400200021
:10247000144D8800C40B020000000000000006009C
:102480009009F8001A09F90000000600B0070200E0
:1024900000000000400081000080FD0010C3B30078
:1024A0000080FD00400089007EC9BF000A20F800BE
:1024B000E0FF9F000A20F90081C9BF000A20F80050
:1024C000F0FF9F000A20F9008089BF00F00FB200E2
:1024D0000C20F800E0FF9F000C20F90064002000B1
:1024E000144D8800C40B020000000000000006002C
:1024F0009009F8001C09F90000000600B00702006E
:1025000000000000400081000080FD0010C3B30007
:102510000080FD00400089007EC9BF000A20F8004D
:10252000E0FF9F000A20F90081C9BF000A20F800DF
:10253000F0FF9F000A20F9008089BF00F00FB20071
:102540000C20F800E0FF9F000C20F9006400200040
:10255000144D8800C40B02000000000000000600BB
:102560009009F8001E09F90000000600B0070200FB
:1025700000000000400081000080FD0010C3B30097
:102580000080FD00400089007EC9BF000A20F800DD
:10259000E0FF9F000A20F90081C9BF000A20F8006F
:1025A000F0FF9F000A20F9008089BF00F00FB20001
:1025B0000C20F800E0FF9F000C20F90064002000D0
:1025C000144D8800C40B020000000000000006004B
:1025D0004DC8BF000000FB00610060000000E0008B
:1025E00003003200DE22A900E222A9000200370027
:1025F000DE22A900E222A8004DC8BF000000FB00B7
:10260000700060000000E00003003200DE02A9005C
:10261000E202A90002003700DE02A900E202A800DF
:102620000000060090C9BF004DE8B700E8120200A4
:102630000000000000000600B007020000000000DB
:10264000400081000080FD0010C3B3000080FD0049
:10265000400089007EC9BF000A20F800E0FF9F000B
:102660000A20F9007FC9BF000A20F800F0FF9F0090
:102670000A20F90054002000144D8800C40B020009
:1026800000000000000006007E09F8009009F90033
:1026900008120200000000008009F8009009F9000B
:1026A00040120200000000008209F8009009F900C1
:1026B00078120200000000008409F8009009F90077
:1026C000B01202000000000086C9BF0090E9B70008
:1026D000121302000000000000000600B007020014
:1026E00000000000400081000080FD0010C3B30026
:1026F0000080FD00400089007EC9BF000A20F8006C
:10270000E0FF9F000A20F90081C9BF000A20F800FD
:10271000F0FF9F000A20F9008089BF00F00FB2008F
:102720000C20F800E0FF9F000C20F90083C9BF00D7
:102730000C20F800F0FF9F000C20F9008289BF00F8
:10274000F00FB2000E20F800E0FF9F000E20F9000D
:1027500085C9BF000E20F800F0FF9F000E20F90091
:102760008489BF00F00FB2001020F800E0FF9F0046
:102770001020F90087C9BF001020F800F0FF9F006B
:102780001020F9008689BF00F00FB2001220F80077
:10279000E0FF9F001220F9007FC9BF001220F8005F
:1027A000F0FF9F001220F900D4002000144D880093
:1027B000C40B02000000000000000600851F780026
:1027C000B007020000000000400081000080FD0012
:1027D00070C4B3000080FD00400089007FC9BF00C5
:1027E000804278000B60EF00050078000A20F800B6
:1027F000E0FF9F000A20F9007E89BF00F00FB200C1
:102800000A20F800F0FF9F000A20F9005400200081
:10281000144D8800C40B020000000000CF027800B5
:1028200000000600B0070200000000004000810028
:102830000080FD0080C4B3000080FD0040008900DE
:102840005000810010C3B300500089005000810087
:102850000080FD0020C3B3000080FD00500089000F
:102860006000810030C3B300600089006000810017
:102870000080FD0050C3B3000080FD0060008900AF
:102880007000810000C4B3007000890070008100F6
:102890000080FD0010C4B3000080FD0070008900BE
:1028A0008000810020C4B300800089008000810086
:1028B0000080FD0030C4B3000080FD00800089006E
:1028C0009000810070C4B3009000890090008100E6
:1028D0000080FD0060C4B3000080FD00900089000E
:1028E000A000810050C5B300A0008900E4002000D2
:1028F000144D8800C40B0200000000000000060018
:10290000B007020000000000400081000080FD00D0
:1029100060C4B3000080FD004000890050008100C9
:1029200070C1B30050008900500081000080FD009C
:1029300030C0B3000080FD005000890060008100BD
:1029400000C2B30060008900600081000080FD00CB
:1029500060C1B3000080FD006000890074002000A9
:10296000144D8800C40B02000000000000000600A7
:10297000DEC2A900E2C2A8002322AF00FEFF37009A
:102980007EC9BF000000FB0024A2B70000000000C9
:102990002302AE00FEFF3700DEC2A900E2C2A9009A
:1029A00000000600B00702000000000080C9BF0060
:1029B0000820F800F0FF9F000820F90081C9BF003F
:1029C0000A20F800E0FF9F000A20F90044002000E0
:1029D000144D8800C40B0200000000000000060037
:1029E000B00702000000000080C9EE000820F800D7
:1029F000F0FF9F000820F90034002000144D8800EB
:102A0000C40B02000000000000000600851F7800D3
:102A10003A09AE00D402370022C9BF000248E300E1
:102A2000C1023A0023C9BF000000FB002084B200AD
:102A3000170032001080B200390032000087B20067
:102A40003F0032002087B200580132003087B200C8
:102A50006E0132007080B200760132005087B20001
:102A60008A0132001087B200980132006087B200FC
:102A70004E023200F080B20056023200E080B20016
:102A80005C0232003081B2006202320092023700F2
:102A900084852000F44B8800B40B02000000000085
:102AA00040E9B70084882000F44B8800B40B020092
:102AB0000000000041E9B700848B2000F44B88003F
:102AC000B40B02000000000042E9B700848E200031
:102AD000F44B8800B40B02000000000043E9B7008B
:102AE00040C9BF007EE9B70041C9BF007FE9B70018
:102AF00042C9BF0080E9B70043C9BF0081E9B70000
:102B0000DE0B020000000000A4AA2A00F44B88009B
:102B100032080200000000002029EF007D0237008B
:102B2000360C020000000000A4AA2A00F44B880022
:102B300032080200000000002029EF007502370073
:102B400024C9BF000000FB00F00FB20044E9B70049
:102B50004509A90044C9BF000000FB003080B20055
:102B6000090032007080B2002A0032001080B200EA
:102B70004B0032003080B2006C0032006081B20045
:102B80008D003200F7003700044980006720E10023
:102B90001F00350026C9BF0046E9B70025C9BF00A0
:102BA00047E9B70028C9BF0048E9B70027C9BF00F7
:102BB00049E9B70084852000F44B88004609F800F5
:102BC0008009F900780D02000000000084852000D3
:102BD000F44B88004809F8008009F900840F0200CE
:102BE0000000000044C9BF0008E0B7008401FB00FA
:102BF000F34B88004609F8008009F9004809F800FD
:102C00008209F900B40F0200000000004509A80085
:102C1000DD003700044980006720E1001F00350017
:102C200026C9BF004AE9B70025C9BF004BE9B70074
:102C300028C9BF004CE9B70027C9BF004DE9B7005C
:102C400084882000F44B88004A09F8008009F900C4
:102C5000780D02000000000084882000F44B8800FA
:102C60004C09F8008009F900840F02000000000000
:102C700044C9BF0008E0B7008401FB00F34B8800A3
:102C80004A09F8008009F9004C09F8008209F900A6
:102C9000B40F0200000000004509A800BA00370088
:102CA000044980006720E1001F00350026C9BF00ED
:102CB0004EE9B70025C9BF004FE9B70028C9BF00DA
:102CC00050E9B70027C9BF0051E9B700848B200045
:102CD000F44B88004E09F8008009F900780D0200D5
:102CE00000000000848B2000F44B88005009F8009D
:102CF0008009F900840F02000000000044C9BF00F1
:102D000008E0B7008401FB00F34B88004E09F8008F
:102D10008009F9005009F8008209F900B40F020097
:102D2000000000004509A800970037000449800012
:102D30006720E1001F00350026C9BF0052E9B70037
:102D400025C9BF0053E9B70028C9BF0054E9B7003F
:102D500027C9BF0055E9B700848E2000F44B8800D6
:102D60005209F8008009F900780D02000000000007
:102D7000848E2000F44B88005409F8008009F90083
:102D8000840F02000000000044C9BF0008E0B70043
:102D90008401FB00F34B88005209F8008009F90018
:102DA0005409F8008209F900B40F02000000000085
:102DB0004509A80074003700044980007320E10031
:102DC0006700350026C9BF0056E9B70025C9BF0016
:102DD00057E9B70028C9BF0058E9B70027C9BF00A5
:102DE00059E9B7002AC9BF005AE9B70029C9BF008D
:102DF0005BE9B7002CC9BF005CE9B7002BC9BF0075
:102E00005DE9B7002EC9BF005EE9B7002DC9BF005C
:102E10005FE9B70030C9BF0060E9B7002FC9BF0044
:102E200061E9B70032C9BF0062E9B70031C9BF002C
:102E300063E9B70034C9BF0064E9B70033C9BF0014
:102E400065E9B70084852000F44B88005609F80036
:102E50008009F900780D0200000000008485200040
:102E6000F44B88005809F8008009F900840F02002B
:102E70000000000084882000F44B88005A09F80004
:102E80008009F900780D020000000000848820000D
:102E9000F44B88005C09F8008009F900840F0200F7
:102EA00000000000848B2000F44B88005E09F800CD
:102EB0008009F900780D020000000000848B2000DA
:102EC000F44B88006009F8008009F900840F0200C3
:102ED00000000000848E2000F44B88006209F80096
:102EE0008009F900780D020000000000848E2000A7
:102EF000F44B88006409F8008009F900840F02008F
:102F00000000000044C9BF0008E0B7008401FB00D6
:102F1000F34B88005609F8008009F9005809F800B9
:102F20008209F9005A09F8008409F9005C09F800DF
:102F30008609F9005E09F8008809F9006009F800BF
:102F40008A09F9006209F8008C09F9006409F8009F
:102F50008E09F900F80F0200000000004509A800E2
:102F60000900370054552500F44B88003208020050
:102F70000000000044C9BF007EE9B700A8100200AD
:102F800000000000000037004509AE0005003700D2
:102F9000A4AA2A00F44B88003208020000000000B6
:102FA0004509A9002029EF005A0137000C08F80054
:102FB0007E09F9000E08F8008009F9001008F800F1
:102FC0008209F9001208F8008409F9001408F800D1
:102FD0008609F9001608F8008809F9001808F800B1
:102FE0008A09F9001A08F8008C09F900C8100200D3
:102FF00000000000A4AA2A00F44B88003208020056
:10300000000000002029EF0042013700600B0200A1
:10301000000000007011020000000000A4AA2A00B5
:10302000F44B880032080200000000002029EF0065
:103030003801370024C9BF000000FB00F00FB200C8
:1030400066E9B70066C9BF000000FB00E10260004E
:103050008009F800E5FF9F008009F90032090200AD
:103060000000000066C9BF007EE9B70088110200B9
:1030700000000000A4AA2A00F44B880032080200D5
:10308000000000002029EF00220137000408F800AA
:103090007E09F9000608F8008009F9000808F80020
:1030A0008209F9000A08F8008409F900A811020051
:1030B00000000000A4AA2A00F44B88003208020095
:1030C000000000002029EF001201370024C9BF00D2
:1030D0000000FB00F00FB20067E9B7004529A90026
:1030E00067C9BF000000FB003080B2000B00320057
:1030F0007080B2001C0032001080B2002D0032003F
:103100003080B2003E0032001080B2004F0032002A
:103110007081B200600032009200370004498000E4
:103120006520E1000F00350026C9BF0068E9B7003F
:1031300025C9BF0069E9B7006809F8009009F900DE
:10314000081202000000000067C9BF007EE9B70056
:103150006809F8008009F9000E1202000000000062
:103160004529A80088003700044980006520E10057
:103170000F00350026C9BF006AE9B70025C9BF00A6
:103180006BE9B7006A09F8009009F90040120200E3
:103190000000000067C9BF007EE9B7006A09F800B7
:1031A0008009F90046120200000000004529A8002D
:1031B00075003700044980006520E1000F003500EC
:1031C00026C9BF006CE9B70025C9BF006DE9B7008B
:1031D0006C09F8009009F900781202000000000064
:1031E00067C9BF007EE9B7006C09F8008009F900E3
:1031F0007E120200000000004529A800620037008E
:10320000044980006520E1000F00350026C9BF0099
:103210006EE9B70025C9BF006FE9B7006E09F80075
:103220009009F900B01202000000000067C9BF0059
:103230007EE9B7006E09F8008009F900B6120200B5
:10324000000000004529A8004F0037000449800015
:103250006420E1000F00350025C9BF000000FB001D
:10326000F00FB20070E9B70070C9BF0090E9B70075
:10327000121302000000000067C9BF007EE9B7001A
:1032800070C9BF007FE9B7001C13020000000000F6
:103290004529A8003C003700044980006C20E1006B
:1032A0002F00350026C9BF0072E9B70025C9BF004D
:1032B00073E9B70028C9BF0074E9B70027C9BF0088
:1032C00075E9B7002AC9BF0076E9B70029C9BF0070
:1032D00077E9B7002CC9BF0078E9B7002BC9BF0058
:1032E00079E9B7002DC9BF000000FB00F00FB20064
:1032F00071E9B70071C9BF0086E9B7007209F8002B
:103300007E09F9007409F8008009F9007609F800CF
:103310008209F9007809F8008409F90044130200D1
:103320000000000067C9BF007EE9B70071C9BF0097
:103330007FE9B7007209F8008009F9007409F80004
:103340008209F9007609F8008409F9007809F80083
:103350008609F9006E130200000000004529A8004C
:103360000900370054552500F44B8800320802004C
:103370000000000067C9BF007EE9B700A810020086
:1033800000000000000037004529AE0005003700AE
:10339000A4AA2A00F44B88003208020000000000B2
:1033A0004529A9002029EF005A0037003E09F800FE
:1033B0007E09F900DE13020000000000A4AA2A0022
:1033C000F44B880032080200000000002029EF00C2
:1033D000500037001214020000000000A4AA2A00C6
:1033E000F44B880032080200000000002029EF00A2
:1033F000480037008014020000000000A4AA2A0040
:10340000F44B880032080200000000002029EF0081
:103410004000370024C9BF000000FB000002780014
:10342000F40FB200D44B88007A89BF00A08AB200A2
:10343000010032001300370022C9BF007EE9B70047
:10344000B81402000000000023C9BF007EE9B700E5
:10345000B81402000000000024C9BF007EE9B700D4
:10346000B814020000000000A4AA2A00F44B88004F
:1034700032080200000000000000FE002029EF00DA
:103480001300370023C9EE000160EF00804278008E
:10349000F50FB2008009F800E5FF9F008009F900F0
:1034A000801F780024C9BF0081E9B7004F00780071
:1034B000D21402000000000054552500F44B88008F
:1034C00032080200000000002029EF000000370051
:1034D0002029EF000F00370023C9BF000000FB00C8
:1034E00080027800F50FB2008009F800E5FF9F0028
:1034F0008009F900F0140200000000005455250076
:10350000F44B880032080200000000002029EF0080
:10351000000037002269EF002369EF002469EF0003
:103520002029EF00010037002029EF003A09A90007
:10353000044980007820E1000B0034002029EF00CE
:103540002269EF002369EF002469EF002569EF008D
:103550002669EF002769EF002869EF002969EF006D
:103560002A69EF002B69EF00CF0278000000060007
:10357000851F7800861F78004489BF00144A8000A8
:103580000020E10016003400200020004009B400B3
:1035900080027800E40F2000954A6200400020007D
:1035A0004009B40080027800244A80008402980018
:1035B000600020004009B40080027800144A8000B6
:1035C0008402980020C0B30084E9B7004009F800E5
:1035D0008209F900140902000000000020003700F1
:1035E0004289BF00244A80000020E1001600340018
:1035F000200020004009B400800278001400200060
:10360000954A7200400020004009B4008002780012
:10361000144A800084029800600020004009B40031
:1036200080027800244A80008402980040C0B300E1
:1036300084E9B7004009F8008209F9001409020082
:10364000000000000600370010C0B30084E9B70096
:103650004009F8008209F900140902000000000086
:10366000C00020004009B400800278006000200003
:103670004009B40010037800400020004009B40065
:103680000002780014007800000053002E0D0200A4
:103690000000000004002000B41A7800B41A78007A
:1036A0004009F8008609F900FA0E02000000000047
:1036B0004F037800CF02780000000600851F7800D5
:1036C000600020004009B400900278004000200013
:1036D0004009B40000027800140078000080520015
:1036E00042A9B700144A8000F30F20000418E1003B
:1036F0000B00340080C0B30084E9B7004009F80033
:103700008209F90014090200000000008002200074
:103710004009B40080027800E40F2000954A62005E
:10372000CF0278000000060003A8AE006600370054
:1037300084852000044A88000C08F8004209F9003A
:103740001408F8004409F900B81A0200000000004B
:1037500084882000044A88001608F8004209F9000D
:103760000E08F8004409F900B81A02000000000031
:10377000848B2000044A88001808F8004209F900E8
:103780001008F8004409F900B81A0200000000000F
:10379000848E2000044A88001208F8004209F900CB
:1037A0001A08F8004409F900B81A020000000000E5
:1037B00000C8B30084E9B70084852000144C880059
:1037C000140902000000000000C8B30084E9B7003B
:1037D00084882000144C88001409020000000000B6
:1037E00000C8B30084E9B700848B2000144C880023
:1037F000140902000000000000C8B30084E9B7000B
:10380000848E2000144C880014090200000000007F
:1038100084852000044A88005E1B0200000000002E
:1038200084882000044A88005E1B0200000000001B
:10383000848B2000044A88005E1B02000000000008
:10384000848E2000044A88005E1B020000000000F5
:103850004CC8BF000000FB00700060000000E000EA
:103860001800320000C4B30084E9B700848520004A
:10387000144C8800140902000000000000C4B300CA
:1038800084E9B70084882000144C880014090200E1
:103890000000000000C4B30084E9B700848B20005E
:1038A000144C8800140902000000000000C4B3009A
:1038B00084E9B700848E2000144C880014090200AB
:1038C0000000000003A8A90000000600851F780082
:1038D000C500200004000900B51F78000002780030
:1038E0008102780083037800020378004200A90077
:1038F0004220A9008180D2000180FD00F10FB200BA
:103900000100E0004B0032004200A9004220A90063
:103910008381D2000380FD00F30FB2000300E000BA
:10392000440032000080FB0001C04100040031006F
:10393000F007B1003F0032003E00390002003700BE
:103940001048B0003B00310007856A004200A90022
:103950004220A900F50FB2000570A0004200A900A6
:10396000F70FB2000770A0000621B800062CB800BF
:1039700083014C00890078004200AF008100E8001C
:103980004200A900043CB80083014C0081804C0037
:10399000072CB80081004C000000E8000100E000A6
:1039A0004220AF0001003700030037000300E000B1
:1039B0004220AF000500370001F0A70003003700E8
:1039C0008381D2008180D2000000E90001017800EB
:1039D0004200A9000370A6000900370007F02F007D
:1039E000878161000310B000600149000200E0001F
:1039F00003003A000300E00001003A000000E80084
:103A00000080FD004200A9004220A9008080D30070
:103A10000AF0A70001F0A00002F0A1000280FD0062
:103A2000814069000380FD000341780002007800B6
:103A300003003700000020000100200000003700D4
:103A40004501200004000900CF127800CF02780061
:103A50000000060000017800810178000140780034
:103A60000080FD0000F0A0008180D2000180FD00F8
:103A70008180FB00E40820008140520006003200F3
:103A80000000E000040032004200A9000080D300E2
:103A90008100E900FAFF3A0003F0A60002003700B7
:103AA0000000EA00000037000000060000012000CE
:103AB0005609B4000002780003002000B419780011
:103AC000B419780000017800810178005A89BF009C
:103AD000E14A8000661C0200000000005EA9B700F9
:103AE000014B88005E89BF00014B80002A1D020047
:103AF0000000000062A9B7006209F8000000F900A8
:103B000000000600851F7800861F78006229EF00FC
:103B10005C49E2000A003200E00220005A09B400C9
:103B2000800278005E89BF00014B80002A1D0200E0
:103B30000000000000037800950A43000A003700E7
:103B4000E00220005A09B400800278005E89BF00BC
:103B5000014B80002A1D02000000000000037800D5
:103B600015027800860A5200E00220005A09B400CB
:103B700090027800A00220005A09B40000027800E8
:103B8000140078000500E10006003D00E00220007E
:103B90005A09B40080027800A00220005A09B4003B
:103BA000900A7800E00220005A09B40090027800E0
:103BB000C00220005A09B400000278001400780006
:103BC0000028E10006003D00E00220005A09B40090
:103BD00080027800C00220005A09B400900A7800E0
:103BE000E00220005A09B400900278006028E10049
:103BF00016003D00E00220005A09B40000027800DF
:103C0000140078002E0D02000000000080027800F1
:103C1000010378000500780086007800D2CC2C00E3
:103C2000C3DC2B00661C02000000000064A9B70082
:103C3000314B88006489BF00314B80002A1D02008F
:103C40000000000062A9B70015003700E002200064
:103C50005A09B40000027800140078002E0D02000A
:103C60000000000080027800010378000500780061
:103C700086007800D2CC2C00C3DC2300661C020036
:103C80000000000068A9B700514B88006889BF0098
:103C9000514B80002A1D02000000000062A9B700FD
:103CA0006209F8000000F9004F037800CF027800A5
:103CB00000000600851F78006429EF00E001200065
:103CC0005E09B40090027800354B88006629D50063
:103CD0006689BF002E0D020000000000024B80002C
:103CE000134B8000C80D02000000000002003900E4
:103CF0006609F8006409F9006409F8000000F90099
:103D0000CF02780000000600851F7800861F78002B
:103D1000871F7800881F7800A00020004209B400A7
:103D200080027800E0FF2F004609B600800A780084
:103D30004409F8004809F900E0FF2F004829B600BF
:103D4000800220004209B400104278000400A6005E
:103D500090013700C00120004209B4009042780071
:103D60008502FB00E2826200C00120004209B4002B
:103D7000904378008703FB0064806300008072003A
:103D80000000E000830132004A29EF004C29EF00D7
:103D90004E29EF00A00020004209B4000002780084
:103DA00014007800444A80000020E100AA0034009A
:103DB000A00020004209B40000027800140078003E
:103DC000444A8000000052002E0D02000000000056
:103DD0004CA9B700714A88004209F8005609F90059
:103DE0004809F8005809F9004C09F8005A09F90087
:103DF0004E09F8005C09F900561D020000000000A1
:103E00008002780010C0B3005CE9B7004209F800F6
:103E10005A09F9004C09F8005E09F9004E09F8004A
:103E20006009F900821D02000000000085024000C8
:103E30004889BF002E0D0200000000000003BE00F4
:103E40004209F8005E09F900064B8800174B88000C
:103E50005A1E020000000000008052004AA9B7006C
:103E6000200020004209B400104278000400A6009F
:103E70002A0037004289BF009002780005007800D0
:103E8000F00FB2003080B200070032007080B20044
:103E90000C0032001080B200110032003080B200FD
:103EA000160032001C003700A4862100534A80000F
:103EB000848241004A09F8008E01F900650C8800EF
:103EC00015003700A4862100534A800084824100F7
:103ED0004A09F8009401F900950C88000E0037009B
:103EE000A4862100534A8000848241004A09F800D8
:103EF0009A01F900C50C880007003700A48621004C
:103F0000534A8000848241004A09F800A001F90068
:103F1000F50C88000000370049003700544A800043
:103F2000430D23000418E10004003D00544A8000C2
:103F3000430D2300030052004AA9B7004289BF0085
:103F40009002780005007800F00FB2003080B200D7
:103F5000070032007080B200120032001080B20000
:103F60001D0032003080B2002800320034003700DB
:103F7000440D2300534A800083025200440D230065
:103F8000534A800003005200440D230000005200F9
:103F9000A486210000035200750C8800660C88007E
:103FA00027003700440D2300534A8000830252004B
:103FB000440D2300534A800003005200440D2300A7
:103FC00000005200A486210000035200A50C8800C6
:103FD000960C88001A003700440D2300534A8000D5
:103FE00083025200440D2300534A80000300520014
:103FF000440D230000005200A4862100000352005B
:10400000D50C8800C60C88000D003700440D230035
:10401000534A800083025200440D2300534A80001B
:1040200003005200440D230000005200A48621002A
:1040300000035200050D8800F60C880000003700D0
:10404000800020004209B40080027800444A8000C9
:1040500084029800CF003700A00020004209B4007D
:104060000002780014007800444A80000020E1003B
:10407000A6003D00A00020004209B4009002780094
:10408000444A8000048052002E0D0200000000000F
:104090004CA9B700714A88004209F8005609F90096
:1040A0004809F8005809F9004C09F8005A09F900C4
:1040B0004E09F8005C09F900561D020000000000DE
:1040C000800278005C69EF004209F8005A09F900A3
:1040D0004C09F8005E09F9004E09F8006009F90082
:1040E000821D020000000000850240004209F80025
:1040F0005E09F9004C09F8006009F9004E09F80062
:104100006209F9005A1E02000000000000805200FF
:104110004AA9B700200020004209B40010427800EC
:104120000400A6004A003700544A8000430D2300D3
:104130000418E10004003D00544A8000430D2300B0
:10414000030052004AA9B7004289BF0090027800DC
:1041500005007800F00FB2003080B2000700320096
:104160007080B200120032001080B2001D003200D8
:104170003080B2002800320034003700440D2300A4
:10418000534A800083025200440D2300534A8000AA
:1041900003005200440D230000005200A4862100B9
:1041A00000035200750C8800660C88002700370059
:1041B000440D2300534A800083025200440D230023
:1041C000534A800003005200440D230000005200B7
:1041D000A486210000035200A50C8800960C8800DC
:1041E0001A003700440D2300534A80008302520016
:1041F000440D2300534A800003005200440D230065
:1042000000005200A486210000035200D50C880053
:10421000C60C88000D003700440D2300534A80006F
:1042200083025200440D2300534A800003005200D1
:10423000440D230000005200A48621000003520018
:10424000050D8800F60C88000000370029003700B3
:104250004289BF009002780005007800F00FB2009C
:104260003080B200070032007080B2000C003200D3
:104270001080B200110032003080B200160032000F
:104280001C003700A4862100534A8000848241002C
:104290004A09F8008E01F900650C88001500370006
:1042A000A4862100534A8000848241004A09F80014
:1042B0009401F900950C88000E003700A4862100B7
:1042C000534A8000848241004A09F8009A01F900AB
:1042D000C50C880007003700A4862100534A8000DF
:1042E000848241004A09F800A001F900F50C880019
:1042F00000003700800020004209B40080027800EE
:10430000444A800084029800220037004289BF009E
:104310009002780005007800F00FB2003080B20003
:10432000070032007080B200090032001080B20035
:104330000B0032003080B2000D0032001000370058
:104340008E21EF00A4862100640C88000C00370049
:104350009421EF00A4862100940C88000800370007
:104360009A21EF00A4862100C40C880004003700C5
:10437000A021EF00A4862100F40C88000000370083
:10438000800020004209B40080027800444A800086
:10439000840298004F047800CF0378004F03780020
:1043A000CF0278000000060003C8AE0035003700D9
:1043B00034002000044A8800044A80006720E1009D
:1043C00030003D004089BF003080B200070032005D
:1043D0007080B2000E0032001080B2001500320072
:1043E0003080B2001C003200240037008485200099
:1043F000144A88000408F8004409F9001809F80074
:104400004609F900841E0200000000001B0037006E
:1044100084882000144A88000608F8004409F9003E
:104420001A09F8004609F900841E02000000000085
:1044300012003700848B2000144A88000808F80016
:104440004409F9001C09F8004609F900841E02001D
:104450000000000009003700848E2000144A880004
:104460000A08F8004409F9001E09F8004609F90095
:10447000841E020000000000000037004029EC000C
:10448000CDFF3700000006000F782200F07F2200E9
:1044900020A0B70000000000404424004005880030
:1044A000404424008005880081E0A80000802000AE
:1044B000E1FF2000018009000018EB00DEC2A90026
:1044C000E2C2A9000028EF000400280004118800BF
:1044D0000440200014118800540120004411880079
:1044E0000268EF000308A9000328A9000348A900F7
:1044F0000368A9000388A9000428EF000628EF003C
:104500000828EF000A28EF000C28EF000E28EF0023
:104510001028EF001228EF001428EF001628EF00F3
:104520001828EF001A28EF003C28EF003E28EF0083
:104530004028EF004228EF004428EF004628EF0013
:104540004828EF004A28EF004C68EF004E28EF00A3
:104550005028EF005228EF0003A8A90003C8A900C3
:104560005428EF005628EF0003E8A9001829EF00AF
:104570001A29EF001C29EF001E29EF004D68EF00FB
:104580002029EF003A09A900F4022000E44988003C
:104590003A29A9003E29EF002CA3EF002AA3EF003F
:1045A0001C28EF001E28EF002028EF002228EF0033
:1045B0002428EF002628EF002828EF002A28EF0003
:1045C0002C28EF002E28EF003028EF003228EF00D3
:1045D0003428EF003628EF003828EF003A28EF00A3
:1045E0002229EF002429EF002629EF002829EF00D7
:1045F0002A29EF002C29EF002E29EF003029EF00A7
:104600003229EF003429EF003629EF003829EF0076
:104610008A07020000000000AC0702000000000052
:1046200050C8B30002E8B700C40702000000000051
:104630000A080200000000003EA9B700540802006A
:1046400000000000A808020000000000B00A0200FC
:104650000000000081E0A9004220EF0081E0A800F6
:1046600010C0B30080E9B70032090200000000006A
:10467000600B020000000000A20B0200000000001E
:104680000004E0001B0032008069EF0032090200E4
:104690000000000000C1B30084E9B7008485200059
:1046A000144C8800140902000000000000C1B3008F
:1046B00084E9B70084882000144C880014090200A3
:1046C0000000000000C1B30084E9B700848B200023
:1046D000144C8800140902000000000000C1B3005F
:1046E00084E9B700848E2000144C8800140902006D
:1046F000000000005C02020000000000061502003D
:1047000000000000941B020000000000D421020001
:0C47100000000000D8FF37000040FE0051
:020000040001F9
:0457FC009DBE00004E
:0200000401F009
:10000000CF0000FFCF0000FF070000FF830000FFCC
:10001000C60000FF5F0000FFE60000FFC30000FF16
:00000001FF
;PIC24HJ64GP206
;CRC=9CAA  CREATED="26-апр-16 11:35"
