:08000000FA03040000000000F7
:04005400980300000D
:0400940068030000FD
:10040000851F7800E502A900E902A800A440800049
:100410006624E100020032000040EB0001003700DA
:1004200010C0B30080427800104080003A08E3001A
:10043000020032000040EB000100370010C0B300A2
:1004400080C26200244080007020E100020032007F
:100450000040EB000100370010C0B30000C0620094
:100460000004E000480032009760A9009560A900F0
:10047000FE39090000000000FF3F090000000000F5
:10048000FF3F090000000000FF3F090000000000DE
:100490000608F8001E08F9000808F8002008F9000E
:1004A0000A08F8002208F9000C08F8002408F900EE
:1004B000DEC2A900E2C2A8003AC8BF002322AF00F2
:1004C000FEFF370024E2B7002562EF005E2209003C
:1004D0000000000000C1B3002322AF00FEFF370080
:1004E00024E2B7002562EF005E2209000000000050
:1004F0001EC8BF002322AF00FEFF370024E2B70072
:100500002562EF005E2209000000000020C8BF0045
:100510002322AF00FEFF370024E2B7002562EF0080
:100520005E2209000000000022C8BF002322AF00A5
:10053000FEFF370024E2B7002562EF005E220900CB
:100540000000000024C8BF002322AF00FEFF3700D8
:1005500024E2B7002562EF005E22090000000000DF
:10056000DEC2A900E2C2A9001468EF0021E2A900DE
:100570002342A90021E2A8002342A8008760A90025
:100580009760A8009560A800A44080006324E10063
:10059000020032000040EB000100370010C0B30041
:1005A00080427800104080003A08E30002003200E8
:1005B0000040EB000100370010C0B30080C26200B1
:1005C000244080006620E100020032000040EB0081
:1005D0000100370010C0B30000C062000004E0005A
:1005E000390032009760A9009560A900FE39090022
:1005F00000000000FF3F090000000000FF3F09006D
:1006000000000000FF3F0900000000000608AE00E7
:1006100003003700DE02A900E202A8000200370052
:10062000DE02A900E202A9000628AE00030037009E
:10063000DE22A900E222A80002003700DE22A90083
:10064000E222A900DEC2A900E2C2A8003AC8BF00A7
:100650002322AF00FEFF370024E2B7002562EF003F
:100660005E2209000000000060C0B3002322AF003A
:10067000FEFF370024E2B7002562EF005E2209008A
:100680000000000006C8BF002322AF00FEFF3700B5
:1006900024E2B7002562EF005E220900000000009E
:1006A000DEC2A900E2C2A9001468EF0021E2A9009D
:1006B0002342A90021E2A8002342A8008760A900E4
:1006C0009760A8009560A800CF027800000006009F
:1006D0004200F8003600F800801F7800200020005B
:1006E0000C000900B01F78009760A9009560A90070
:1006F00000020200000000001468EF008760A900FB
:10070000E502A900E902A8009560A8009760A90089
:100710008760A900A00120000C0009004F1078009C
:100720004F0078003600F9004200F9000040060052
:100730004200F8003600F800801F780020002000FA
:100740000C000900B01F78009760A9002202AE00DB
:10075000FEFF37003011800015E8B700E502A90060
:10076000E902A800A44080006142420004407800F1
:1007700014E8B70014C8BF000160EF004100DD00BD
:10078000048020008402400015C8BF00804A780021
:1007900000C0B300904298001421EF0021E2A900AC
:1007A0002342A90021E2A8002342A8008760A900F3
:1007B0009760A8008560A900A00120000C00090036
:1007C0004F1078004F0078003600F9004200F90021
:1007D000004006000000E0004220AF0004003700A7
:1007E000391F0900000000000000E900F9FF370090
:1007F00000000600404424004005880040442400D6
:100800008005880081E0A800040028000411880009
:1008100004402000141188002062A9003403200045
:10082000441188001628EF00E0C1B30015E8B700B6
:1008300004032000D44188002CA3EF002AA3EF007A
:100840000FF82100F0FF210020A0B70000000000F9
:10085000DE02A900E202A900DE22A900E222A9002C
:10086000803E2000EA030200000000001468EF0050
:10087000DE02A900E202A800DE22A900E222A8000E
:10088000E4E2A900E8E2A90081E0A9004220EF002B
:1008900081E0A8009560A8001E21EF00A40F2000B1
:1008A000D408880004032A00F40888001221EF000D
:1008B00004E224007408880004002A0094088800D8
:1008C000D4002000240C88008221EF000471220053
:1008D000040C8800D4002000540C8800047122000D
:1008E000440C88008621EF00D4002000840C88008E
:1008F00084382100740C880084A92300640C8800CB
:10090000D4002000B40C880084382100A40C880096
:1009100084A92300940C8800D4002000E40C8800F3
:1009200084A92300D40C880084382100C40C8800DA
:10093000D4002000140D880084382100040D8800A4
:1009400084A92300F40C8800E4E2A900E8E2A800EE
:10095000E5E2A900E9E2A80034FF29006419880053
:100960002AA3EF002223EF0074002000241988003E
:10097000040E28000419880054082000F440880060
:1009800054082000044188005408200014418800C5
:100990005408200024418800E4E2A900E8E2A8000D
:1009A00024002000441988001E03090000000000F4
:1009B0003028EF0014002000D4408800D44080008C
:1009C0006420E1000B003E002003A9002023A800C2
:1009D0002003AE00FEFF37000003F8003808F900DE
:1009E000804180003808B400804188001A28EC005B
:1009F000F2FF3700804180004400DE008041880023
:100A000004712200B440880080418000F4408000DE
:100A10000020E1001C003600F4408000834180008B
:100A200083025200440620000428B800047122000A
:100A300084024000F44080008341800003005200A3
:100A40003441800000035200440620000430B80006
:100A500000805200B0408800F44080008341800054
:100A600003005200304188002403200083418000AD
:100A700004804100F44080000020E10002003600C4
:100A800084A92300B4408800F040800084418000A5
:100A90000020E1001C00360084418000F34080000B
:100AA00083025200440620000428B800047122008A
:100AB0008002520084418000F34080000300520015
:100AC0003441800000035200440620000430B80086
:100AD00005004000B040880084418000F340800061
:100AE000030052003041880024032000F3408000BE
:100AF00084824100844180000520E100020036002C
:100B000084382100B44088001608F8008E01F900EE
:100B1000B4408000037122000418E1000400390091
:100B2000007122001608B400600C88000400370031
:100B3000B44080000371220003005200600C880062
:100B400034002000441988001E0309000000000042
:100B50003228EF0014002000D4408800D4408000E8
:100B60006420E1000B003E002003A9002023A80020
:100B70002003AE00FEFF37000003F8003808F9003C
:100B8000904180003808B400904188001A28EC0099
:100B9000F2FF3700904180004400DE009041880061
:100BA00004712200B440880090418000044180001C
:100BB0000020E1001C0036000441800093418000C9
:100BC00083025200440620000428B8000471220069
:100BD00080025200044180009341800003005200D3
:100BE0004441800000035200440620000430B80055
:100BF00005004000B040880004418000934180001F
:100C000003005200404188002403200093418000EB
:100C100004804100044180000020E1000200360011
:100C200084382100B4408800004180009441800055
:100C30000020E1001C003600944180000341800048
:100C400083025200440620000428B80004712200E8
:100C50008402400094418000034180000300520060
:100C60004441800000035200440620000430B800D4
:100C700000805200B0408800944180000341800011
:100C800003005200404188002403200003418000FB
:100C900084824100944180000520E100020036007A
:100CA00084A92300B44088001608F8009401F900D4
:100CB000B4408000037122000418E10004003900F0
:100CC000007122001608B400900C88000400370060
:100CD000B44080000371220003005200900C880091
:100CE000D4002000441988001E0309000000000001
:100CF0003428EF0014002000D4408800D440800045
:100D00006420E1000B003E002003A9002023A8007E
:100D10002003AE00FEFF37000003F8003808F9009A
:100D2000A04180003808B400A04188001A28EC00D7
:100D3000F2FF3700A04180004400DE00A04188009F
:100D400004712200B4408800A0418000144180005A
:100D50000020E1001C00360014418000A341800007
:100D600083025200440620000428B80004712200C7
:100D70008002520014418000A34180000300520011
:100D80005441800000035200440620000430B800A3
:100D900005004000B040880014418000A34180005D
:100DA000030052005041880024032000A34180002A
:100DB00004804100144180000020E1000200360060
:100DC00084382100B440880010418000A441800094
:100DD0000020E1001C003600A44180001341800087
:100DE00083025200440620000428B8000471220047
:100DF00084024000A441800013418000030052009F
:100E00005441800000035200440620000430B80022
:100E100000805200B0408800A4418000134180004F
:100E20000300520050418800240320001341800039
:100E300084824100A44180000520E10002003600C8
:100E400084A92300B44088001608F8009A01F9002C
:100E5000B4408000037122000418E100040039004E
:100E6000007122001608B400C00C8800040037008E
:100E7000B44080000371220003005200C00C8800BF
:100E8000E4002000441988001E030900000000004F
:100E90003628EF0014002000D4408800D4408000A1
:100EA0006420E1000B003E002003A9002023A800DD
:100EB0002003AE00FEFF37000003F8003808F900F9
:100EC000B04180003808B400B04188001A28EC0016
:100ED000F2FF3700B04180004400DE00B0418800DE
:100EE00004712200B4408800B04180002441800099
:100EF0000020E1001C00360024418000B341800046
:100F000083025200440620000428B8000471220025
:100F10008402400024418000B3418000030052005D
:100F20006441800000035200440620000430B800F1
:100F300000805200B040880024418000B34180000E
:100F4000030052006041880024032000B341800068
:100F500004804100244180000020E10002003600AE
:100F600084A92300B440880020418000B44180005F
:100F70000020E1001C003600B441800023418000C5
:100F800083025200440620000428B80004712200A5
:100F900080025200B44180002341800003005200CF
:100FA0006441800000035200440620000430B80071
:100FB00005004000B0408800B4418000234180001B
:100FC0000300520060418800240320002341800078
:100FD00084824100B44180000520E1000200360017
:100FE00084382100B44088001608F800A001F900F8
:100FF000B4408000037122000418E10004003900AD
:10100000007122001608B400F00C880004003700BC
:10101000B44080000371220003005200F00C8800ED
:10102000E502A900E902A900E4E2A900E8E2A900BA
:1010300020032000EA0302000000000056FE3700F3
:041040000040FE006E
:0200000401F009
:10000000CF000000CF0000000700000082000000C9
:10001000C60000005F00000006000000C3000000F2
:00000001FF
;PIC24HJ64GP206
;CRC=15AF  CREATED="14-дек-15 15:57"
